{
  "address": "0x9fE46736679d2D9a65F0992F2272dE9f3c7fa6e0",
  "abi": [
    {
      "inputs": [
        {
          "internalType": "address",
          "name": "_bingoTokenAddress",
          "type": "address"
        }
      ],
      "stateMutability": "nonpayable",
      "type": "constructor"
    },
    {
      "inputs": [],
      "name": "erorr__entryFee",
      "type": "error"
    },
    {
      "inputs": [],
      "name": "error__drawsNotStared",
      "type": "error"
    },
    {
      "inputs": [],
      "name": "error__exceedLimitPlayersInOneGame",
      "type": "error"
    },
    {
      "inputs": [],
      "name": "error__gameStarted",
      "type": "error"
    },
    {
      "inputs": [],
      "name": "error__gameWinnerDrawed",
      "type": "error"
    },
    {
      "inputs": [],
      "name": "error__gameWinnerNotDrawed",
      "type": "error"
    },
    {
      "inputs": [],
      "name": "error__inGameAlready",
      "type": "error"
    },
    {
      "inputs": [],
      "name": "error__notAdmin",
      "type": "error"
    },
    {
      "inputs": [],
      "name": "error__notInGameOrClaimedRewards",
      "type": "error"
    },
    {
      "inputs": [],
      "name": "error__winnerIsDRAWING",
      "type": "error"
    },
    {
      "anonymous": false,
      "inputs": [
        {
          "indexed": true,
          "internalType": "address",
          "name": "player",
          "type": "address"
        },
        {
          "indexed": true,
          "internalType": "uint256",
          "name": "Claimed",
          "type": "uint256"
        }
      ],
      "name": "Claimed",
      "type": "event"
    },
    {
      "anonymous": false,
      "inputs": [
        {
          "indexed": true,
          "internalType": "address",
          "name": "creator",
          "type": "address"
        },
        {
          "indexed": true,
          "internalType": "uint256",
          "name": "roundCreated",
          "type": "uint256"
        },
        {
          "indexed": true,
          "internalType": "uint256",
          "name": "timeCreated",
          "type": "uint256"
        }
      ],
      "name": "Created",
      "type": "event"
    },
    {
      "anonymous": false,
      "inputs": [
        {
          "indexed": true,
          "internalType": "uint256",
          "name": "gameRound",
          "type": "uint256"
        },
        {
          "indexed": true,
          "internalType": "uint256",
          "name": "playersNum",
          "type": "uint256"
        },
        {
          "indexed": false,
          "internalType": "uint256[24]",
          "name": "winningNumbers",
          "type": "uint256[24]"
        },
        {
          "indexed": false,
          "internalType": "uint256",
          "name": "bingoRound",
          "type": "uint256"
        }
      ],
      "name": "Drawed",
      "type": "event"
    },
    {
      "anonymous": false,
      "inputs": [
        {
          "indexed": true,
          "internalType": "address",
          "name": "player",
          "type": "address"
        },
        {
          "indexed": true,
          "internalType": "uint256",
          "name": "roundJoined",
          "type": "uint256"
        }
      ],
      "name": "Joined",
      "type": "event"
    },
    {
      "inputs": [],
      "name": "BingoToken",
      "outputs": [
        {
          "internalType": "address",
          "name": "",
          "type": "address"
        }
      ],
      "stateMutability": "view",
      "type": "function"
    },
    {
      "inputs": [],
      "name": "admin",
      "outputs": [
        {
          "internalType": "address",
          "name": "",
          "type": "address"
        }
      ],
      "stateMutability": "view",
      "type": "function"
    },
    {
      "inputs": [],
      "name": "betAmountForBINGO",
      "outputs": [
        {
          "internalType": "uint256",
          "name": "",
          "type": "uint256"
        }
      ],
      "stateMutability": "view",
      "type": "function"
    },
    {
      "inputs": [
        {
          "internalType": "uint256",
          "name": "_gameRound",
          "type": "uint256"
        },
        {
          "internalType": "address",
          "name": "_player",
          "type": "address"
        }
      ],
      "name": "checkWinner",
      "outputs": [
        {
          "internalType": "bool",
          "name": "",
          "type": "bool"
        },
        {
          "internalType": "uint256",
          "name": "",
          "type": "uint256"
        }
      ],
      "stateMutability": "view",
      "type": "function"
    },
    {
      "inputs": [
        {
          "internalType": "uint256",
          "name": "_gameRound",
          "type": "uint256"
        }
      ],
      "name": "claimPrize",
      "outputs": [],
      "stateMutability": "nonpayable",
      "type": "function"
    },
    {
      "inputs": [
        {
          "internalType": "uint256",
          "name": "_gameRound",
          "type": "uint256"
        }
      ],
      "name": "drawWinner",
      "outputs": [],
      "stateMutability": "nonpayable",
      "type": "function"
    },
    {
      "inputs": [],
      "name": "gameRoundNow",
      "outputs": [
        {
          "internalType": "uint256",
          "name": "",
          "type": "uint256"
        }
      ],
      "stateMutability": "view",
      "type": "function"
    },
    {
      "inputs": [
        {
          "internalType": "address",
          "name": "_player",
          "type": "address"
        },
        {
          "internalType": "uint256",
          "name": "_gameRound",
          "type": "uint256"
        }
      ],
      "name": "getPlayerGameBoard",
      "outputs": [
        {
          "internalType": "uint256[25]",
          "name": "",
          "type": "uint256[25]"
        }
      ],
      "stateMutability": "view",
      "type": "function"
    },
    {
      "inputs": [
        {
          "internalType": "uint256",
          "name": "_gameRound",
          "type": "uint256"
        }
      ],
      "name": "getRoundBingoResult",
      "outputs": [
        {
          "internalType": "bool",
          "name": "",
          "type": "bool"
        },
        {
          "internalType": "uint256[24]",
          "name": "",
          "type": "uint256[24]"
        }
      ],
      "stateMutability": "view",
      "type": "function"
    },
    {
      "inputs": [
        {
          "internalType": "uint256",
          "name": "_gameRoundToJoin",
          "type": "uint256"
        }
      ],
      "name": "joinCurrentGameWithBet",
      "outputs": [],
      "stateMutability": "nonpayable",
      "type": "function"
    },
    {
      "inputs": [],
      "name": "joinDuration",
      "outputs": [
        {
          "internalType": "uint256",
          "name": "",
          "type": "uint256"
        }
      ],
      "stateMutability": "view",
      "type": "function"
    },
    {
      "inputs": [],
      "name": "maxPlayerNum",
      "outputs": [
        {
          "internalType": "uint256",
          "name": "",
          "type": "uint256"
        }
      ],
      "stateMutability": "view",
      "type": "function"
    },
    {
      "inputs": [],
      "name": "returnBet",
      "outputs": [
        {
          "internalType": "bool",
          "name": "",
          "type": "bool"
        }
      ],
      "stateMutability": "view",
      "type": "function"
    },
    {
      "inputs": [
        {
          "internalType": "uint256",
          "name": "_joinDuration",
          "type": "uint256"
        },
        {
          "internalType": "uint256",
          "name": "_turnDuration",
          "type": "uint256"
        },
        {
          "internalType": "uint256",
          "name": "_betAmountForBINGO",
          "type": "uint256"
        },
        {
          "internalType": "bool",
          "name": "_returnBet",
          "type": "bool"
        },
        {
          "internalType": "uint256",
          "name": "_maxPlayerNum",
          "type": "uint256"
        }
      ],
      "name": "setConfig",
      "outputs": [],
      "stateMutability": "nonpayable",
      "type": "function"
    },
    {
      "inputs": [],
      "name": "startNewGameWithBet",
      "outputs": [],
      "stateMutability": "nonpayable",
      "type": "function"
    },
    {
      "inputs": [],
      "name": "turnDuration",
      "outputs": [
        {
          "internalType": "uint256",
          "name": "",
          "type": "uint256"
        }
      ],
      "stateMutability": "view",
      "type": "function"
    }
  ],
  "transactionHash": "0xc29c9e79468df2faaec8dae6b98abc1d80985806312f19fb6cb03088b792ac56",
  "args": [
    "0x5FbDB2315678afecb367f032d93F642f64180aa3"
  ],
  "numDeployments": 1,
  "solcInputHash": "bb517958f035a2b361494a62efd1b08d",
  "bytecode": "0x608060405260b460025560b4600355670de0b6b3a764000060055560046007553480156200002c57600080fd5b506040516200339238038062003392833981810160405281019062000052919062000145565b80600460006101000a81548173ffffffffffffffffffffffffffffffffffffffff021916908373ffffffffffffffffffffffffffffffffffffffff16021790555033600160006101000a81548173ffffffffffffffffffffffffffffffffffffffff021916908373ffffffffffffffffffffffffffffffffffffffff1602179055505062000177565b600080fd5b600073ffffffffffffffffffffffffffffffffffffffff82169050919050565b60006200010d82620000e0565b9050919050565b6200011f8162000100565b81146200012b57600080fd5b50565b6000815190506200013f8162000114565b92915050565b6000602082840312156200015e576200015d620000db565b5b60006200016e848285016200012e565b91505092915050565b61320b80620001876000396000f3fe608060405234801561001057600080fd5b50600436106101005760003560e01c806360b2a56a1161009757806395f5d1fd1161006657806395f5d1fd1461027b578063bdff7d88146102ab578063d7098154146102c7578063f851a440146102e357610100565b806360b2a56a1461020757806362e838ef14610223578063744c552f14610241578063884c0fe91461025d57610100565b8063172bf854116100d3578063172bf8541461017c578063227b03541461019a57806327249ee8146101cb5780634fbd239b146101e957610100565b806305066917146101055780630b3ca74d14610123578063108027491461012d57806313b3da5d1461014b575b600080fd5b61010d610301565b60405161011a919061291d565b60405180910390f35b61012b610307565b005b610135610479565b604051610142919061291d565b60405180910390f35b61016560048036038101906101609190612969565b61047f565b604051610173929190612a5c565b60405180910390f35b610184610501565b604051610191919061291d565b60405180910390f35b6101b460048036038101906101af9190612ae4565b610507565b6040516101c2929190612b24565b60405180910390f35b6101d361064d565b6040516101e0919061291d565b60405180910390f35b6101f1610653565b6040516101fe9190612b5c565b60405180910390f35b610221600480360381019061021c9190612969565b610679565b005b61022b610f1f565b6040516102389190612b77565b60405180910390f35b61025b60048036038101906102569190612bbe565b610f32565b005b610265610ff6565b604051610272919061291d565b60405180910390f35b61029560048036038101906102909190612c39565b610ffc565b6040516102a29190612cfd565b60405180910390f35b6102c560048036038101906102c09190612969565b61109e565b005b6102e160048036038101906102dc9190612969565b6112a7565b005b6102eb611795565b6040516102f89190612b5c565b60405180910390f35b60035481565b60011515600460009054906101000a900473ffffffffffffffffffffffffffffffffffffffff1673ffffffffffffffffffffffffffffffffffffffff166323b872dd33306005546040518463ffffffff1660e01b815260040161036c93929190612d19565b602060405180830381600087803b15801561038657600080fd5b505af115801561039a573d6000803e3d6000fd5b505050506040513d601f19601f820116820180604052508101906103be9190612d65565b1515146103f7576040517f2ff987e700000000000000000000000000000000000000000000000000000000815260040160405180910390fd5b60008081546001019190508190555060008054905042600860008381526020019081526020016000206001018190555061043133826117bb565b42813373ffffffffffffffffffffffffffffffffffffffff167f95b18bbe5373dcbe675d3ab2ae6e3888392575c51b8b8c9c3cbbdb431af1929960405160405180910390a450565b60075481565b6000610489612797565b600060086000858152602001908152602001600020600201541160086000858152602001908152602001600020600501806018806020026040519081016040528092919082601880156104f1576020028201915b8154815260200190600101908083116104dd575b5050505050905091509150915091565b60025481565b6000806000600860008681526020019081526020016000206003018054806020026020016040519081016040528092919081815260200182805480156105a257602002820191906000526020600020905b8160009054906101000a900473ffffffffffffffffffffffffffffffffffffffff1673ffffffffffffffffffffffffffffffffffffffff1681526020019060010190808311610558575b505050505090506000808251111561063c575b8473ffffffffffffffffffffffffffffffffffffffff168282815181106105df576105de612d92565b5b602002602001015173ffffffffffffffffffffffffffffffffffffffff16141561062057600061060f8787611ac1565b905060018194509450505050610646565b806001019050815181106105b557600080935093505050610646565b6000809350935050505b9250929050565b60005481565b600460009054906101000a900473ffffffffffffffffffffffffffffffffffffffff1681565b8060035460025460086000848152602001908152602001600020600101546106a19190612df0565b6106ab9190612df0565b4210156106e4576040517faf30eb6800000000000000000000000000000000000000000000000000000000815260040160405180910390fd5b6008600082815260200190815260200160002060000160009054906101000a900460ff161561073f576040517ffc1cee5000000000000000000000000000000000000000000000000000000000815260040160405180910390fd5b60016008600083815260200190815260200160002060000160006101000a81548160ff021916908315150217905550600115156008600084815260200190815260200160002060000160019054906101000a900460ff16151514156107d0576040517f9162ee7d00000000000000000000000000000000000000000000000000000000815260040160405180910390fd5b60006008600084815260200190815260200160002060040180548060200260200160405190810160405280929190818152602001828054801561086857602002820191906000526020600020905b8160009054906101000a900473ffffffffffffffffffffffffffffffffffffffff1673ffffffffffffffffffffffffffffffffffffffff168152602001906001019080831161081e575b50505050509050610877612797565b600182511115610e695760006018905061089085611c13565b915060008060005b600091505b6000905060006108c78785815181106108b9576108b8612d92565b5b60200260200101518a610ffc565b90505b8082601981106108dd576108dc612d92565b5b60200201518684601881106108f5576108f4612d92565b5b60200201511415610988576001600860008b8152602001908152602001600020601d01600089878151811061092d5761092c612d92565b5b602002602001015173ffffffffffffffffffffffffffffffffffffffff1673ffffffffffffffffffffffffffffffffffffffff168152602001908152602001600020601a016000848152602001908152602001600020819055505b600b821415610998578160010191505b8160010191506004821115610c37576109cb898886815181106109be576109bd612d92565b5b6020026020010151611d2c565b15610c36576001856109dd9190612e46565b831415610a7a57600860008a8152602001908152602001600020600301878581518110610a0d57610a0c612d92565b5b60200260200101519080600181540180825580915050600190039060005260206000200160009091909190916101000a81548173ffffffffffffffffffffffffffffffffffffffff021916908373ffffffffffffffffffffffffffffffffffffffff160217905550610b80565b600067ffffffffffffffff811115610a9557610a94612e7a565b5b604051908082528060200260200182016040528015610ac35781602001602082028036833780820191505090505b50600860008b81526020019081526020016000206003019080519060200190610aed9291906127ba565b50600860008a8152602001908152602001600020600301878581518110610b1757610b16612d92565b5b60200260200101519080600181540180825580915050600190039060005260206000200160009091909190916101000a81548173ffffffffffffffffffffffffffffffffffffffff021916908373ffffffffffffffffffffffffffffffffffffffff1602179055505b60018301945082600860008b815260200190815260200160002060020181905550610c316040518060400160405280601481526020017f46697273742042696e676f20696e20726f756e64000000000000000000000000815250846040518060400160405280601281526020017f666f7220706c61796572206164647265737300000000000000000000000000008152508a8881518110610c2457610c23612d92565b5b6020026020010151612636565b610c40565b5b601982106108ca575b8260010192505083821061089d578260010192508551831061089857600092505b600080610c888a898781518110610c7b57610c7a612d92565b5b6020026020010151610507565b915091508115610e5457600460009054906101000a900473ffffffffffffffffffffffffffffffffffffffff1673ffffffffffffffffffffffffffffffffffffffff1663a9059cbb898781518110610ce357610ce2612d92565b5b6020026020010151836040518363ffffffff1660e01b8152600401610d09929190612ea9565b602060405180830381600087803b158015610d2357600080fd5b505af1158015610d37573d6000803e3d6000fd5b505050506040513d601f19601f82011682018060405250810190610d5b9190612d65565b506002600860008c8152602001908152602001600020601d0160008a8881518110610d8957610d88612d92565b5b602002602001015173ffffffffffffffffffffffffffffffffffffffff1673ffffffffffffffffffffffffffffffffffffffff16815260200190815260200160002060000160006101000a81548160ff02191690836002811115610df057610def612ed2565b5b021790555080888681518110610e0957610e08612d92565b5b602002602001015173ffffffffffffffffffffffffffffffffffffffff167fd8138f8a3f377c5259ca548e70e4c2de94f129f5a11036a15b69513cba2b426a60405160405180910390a35b846001019450505085518310610c6157505050505b60016008600086815260200190815260200160002060000160016101000a81548160ff0219169083151502179055508151847f46aef705aa56eecf91cff09c38b492bb00be62e9cc0dbb3f786810e7b875136b836008600089815260200190815260200160002060020154604051610ee2929190612f01565b60405180910390a3505060006008600083815260200190815260200160002060000160006101000a81548160ff0219169083151502179055505050565b600660009054906101000a900460ff1681565b600160009054906101000a900473ffffffffffffffffffffffffffffffffffffffff1673ffffffffffffffffffffffffffffffffffffffff163373ffffffffffffffffffffffffffffffffffffffff1614610fb9576040517f9639a84e00000000000000000000000000000000000000000000000000000000815260040160405180910390fd5b84600281905550836003819055508260058190555081600660006101000a81548160ff021916908315150217905550806007819055505050505050565b60055481565b611004612844565b60086000838152602001908152602001600020601d0160008473ffffffffffffffffffffffffffffffffffffffff1673ffffffffffffffffffffffffffffffffffffffff168152602001908152602001600020600101601980602002604051908101604052809291908260198015611091576020028201915b81548152602001906001019080831161107d575b5050505050905092915050565b600754600160086000848152602001908152602001600020600401805490506110c79190612df0565b11156110ff576040517f9aa0271f00000000000000000000000000000000000000000000000000000000815260040160405180910390fd5b60008061110c83336126d8565b915091506000600281111561112457611123612ed2565b5b82600281111561113757611136612ed2565b5b1461116e576040517f70b48ea500000000000000000000000000000000000000000000000000000000815260040160405180910390fd5b804211156111a8576040517f496f3b7600000000000000000000000000000000000000000000000000000000815260040160405180910390fd5b60011515600460009054906101000a900473ffffffffffffffffffffffffffffffffffffffff1673ffffffffffffffffffffffffffffffffffffffff166323b872dd33306005546040518463ffffffff1660e01b815260040161120d93929190612d19565b602060405180830381600087803b15801561122757600080fd5b505af115801561123b573d6000803e3d6000fd5b505050506040513d601f19601f8201168201806040525081019061125f9190612d65565b151514611298576040517f2ff987e700000000000000000000000000000000000000000000000000000000815260040160405180910390fd5b6112a233846117bb565b505050565b8060035460025460086000848152602001908152602001600020600101546112cf9190612df0565b6112d99190612df0565b421015611312576040517faf30eb6800000000000000000000000000000000000000000000000000000000815260040160405180910390fd5b6008600082815260200190815260200160002060000160009054906101000a900460ff161561136d576040517ffc1cee5000000000000000000000000000000000000000000000000000000000815260040160405180910390fd5b60016008600083815260200190815260200160002060000160006101000a81548160ff021916908315150217905550600160028111156113b0576113af612ed2565b5b60086000848152602001908152602001600020601d0160003373ffffffffffffffffffffffffffffffffffffffff1673ffffffffffffffffffffffffffffffffffffffff16815260200190815260200160002060000160009054906101000a900460ff16600281111561142657611425612ed2565b5b1461145d576040517f6c8aeb7700000000000000000000000000000000000000000000000000000000815260040160405180910390fd5b6000600554905060008015156008600086815260200190815260200160002060000160019054906101000a900460ff16151514156114c7576040517fff07fcae00000000000000000000000000000000000000000000000000000000815260040160405180910390fd5b6000600860008681526020019081526020016000206002015411156115b1576114f08433611ac1565b905060008111156115ac57600460009054906101000a900473ffffffffffffffffffffffffffffffffffffffff1673ffffffffffffffffffffffffffffffffffffffff1663a9059cbb33836040518363ffffffff1660e01b8152600401611558929190612ea9565b602060405180830381600087803b15801561157257600080fd5b505af1158015611586573d6000803e3d6000fd5b505050506040513d601f19601f820116820180604052508101906115aa9190612d65565b505b61169d565b600160086000868152602001908152602001600020600401805490501115806115e65750600660009054906101000a900460ff165b1561169c57600460009054906101000a900473ffffffffffffffffffffffffffffffffffffffff1673ffffffffffffffffffffffffffffffffffffffff1663a9059cbb33846040518363ffffffff1660e01b8152600401611648929190612ea9565b602060405180830381600087803b15801561166257600080fd5b505af1158015611676573d6000803e3d6000fd5b505050506040513d601f19601f8201168201806040525081019061169a9190612d65565b505b5b600260086000868152602001908152602001600020601d0160003373ffffffffffffffffffffffffffffffffffffffff1673ffffffffffffffffffffffffffffffffffffffff16815260200190815260200160002060000160006101000a81548160ff0219169083600281111561171757611716612ed2565b5b0217905550803373ffffffffffffffffffffffffffffffffffffffff167fd8138f8a3f377c5259ca548e70e4c2de94f129f5a11036a15b69513cba2b426a60405160405180910390a3505060006008600083815260200190815260200160002060000160006101000a81548160ff0219169083151502179055505050565b600160009054906101000a900473ffffffffffffffffffffffffffffffffffffffff1681565b600160086000838152602001908152602001600020601d0160008473ffffffffffffffffffffffffffffffffffffffff1673ffffffffffffffffffffffffffffffffffffffff16815260200190815260200160002060000160006101000a81548160ff0219169083600281111561183557611834612ed2565b5b021790555060086000828152602001908152602001600020600401829080600181540180825580915050600190039060005260206000200160009091909190916101000a81548173ffffffffffffffffffffffffffffffffffffffff021916908373ffffffffffffffffffffffffffffffffffffffff16021790555060006118bb612844565b60006001436118ca9190612e46565b40905060008160001c9050600081336040516020016118ea929190612f95565b6040516020818303038152906040528051906020012060001c90505b6000600682901c1161195157604082338760405160200161192993929190612fc1565b6040516020818303038152906040528051906020012060001c61194c919061302d565b611963565b6040600682901c611962919061302d565b5b90508084866019811061197957611978612d92565b5b602002018181525050600b851415611992578460010194505b84600101945060198510611906578360086000888152602001908152602001600020601d0160008973ffffffffffffffffffffffffffffffffffffffff1673ffffffffffffffffffffffffffffffffffffffff168152602001908152602001600020600101906019611a05929190612867565b50600160086000888152602001908152602001600020601d0160008973ffffffffffffffffffffffffffffffffffffffff1673ffffffffffffffffffffffffffffffffffffffff168152602001908152602001600020601a016000600c815260200190815260200160002081905550853373ffffffffffffffffffffffffffffffffffffffff167f49f8fa5eee2e3f21251c2e968640dcaef35cb9332429eb059bb3cd56ddc2533d60405160405180910390a350505050505050565b60008060086000858152602001908152602001600020600301805480602002602001604051908101604052809291908181526020018280548015611b5a57602002820191906000526020600020905b8160009054906101000a900473ffffffffffffffffffffffffffffffffffffffff1673ffffffffffffffffffffffffffffffffffffffff1681526020019060010190808311611b10575b505050505090506000805b8473ffffffffffffffffffffffffffffffffffffffff16838381518110611b8f57611b8e612d92565b5b602002602001015173ffffffffffffffffffffffffffffffffffffffff161415611bbc5780806001019150505b81600101915082518210611b655782516008600088815260200190815260200160002060040180549050600554611bf3919061305e565b82611bfe919061305e565b611c0891906130b8565b935050505092915050565b611c1b612797565b611c23612797565b600080600143611c339190612e46565b40905060008160001c905060008133604051602001611c53929190612f95565b6040516020818303038152906040528051906020012060001c90505b6000600682901c11611cba576040823386604051602001611c9293929190612fc1565b6040516020818303038152906040528051906020012060001c611cb5919061302d565b611ccc565b6040600682901c611ccb919061302d565b5b905080858560188110611ce257611ce1612d92565b5b60200201818152505083600101935060188410611c6f578460086000898152602001908152602001600020600501906018611d1e9291906128a7565b508495505050505050919050565b600080600160086000868152602001908152602001600020601d0160008573ffffffffffffffffffffffffffffffffffffffff1673ffffffffffffffffffffffffffffffffffffffff168152602001908152602001600020601a01600080815260200190815260200160002054148015611e0e5750600160086000868152602001908152602001600020601d0160008573ffffffffffffffffffffffffffffffffffffffff1673ffffffffffffffffffffffffffffffffffffffff168152602001908152602001600020601a0160006006815260200190815260200160002054145b8015611e825750600160086000868152602001908152602001600020601d0160008573ffffffffffffffffffffffffffffffffffffffff1673ffffffffffffffffffffffffffffffffffffffff168152602001908152602001600020601a0160006012815260200190815260200160002054145b8015611ef65750600160086000868152602001908152602001600020601d0160008573ffffffffffffffffffffffffffffffffffffffff1673ffffffffffffffffffffffffffffffffffffffff168152602001908152602001600020601a0160006018815260200190815260200160002054145b15611f05576001915050612630565b600160086000868152602001908152602001600020601d0160008573ffffffffffffffffffffffffffffffffffffffff1673ffffffffffffffffffffffffffffffffffffffff168152602001908152602001600020601a0160006004815260200190815260200160002054148015611fe55750600160086000868152602001908152602001600020601d0160008573ffffffffffffffffffffffffffffffffffffffff1673ffffffffffffffffffffffffffffffffffffffff168152602001908152602001600020601a0160006008815260200190815260200160002054145b80156120595750600160086000868152602001908152602001600020601d0160008573ffffffffffffffffffffffffffffffffffffffff1673ffffffffffffffffffffffffffffffffffffffff168152602001908152602001600020601a0160006010815260200190815260200160002054145b80156120cd5750600160086000868152602001908152602001600020601d0160008573ffffffffffffffffffffffffffffffffffffffff1673ffffffffffffffffffffffffffffffffffffffff168152602001908152602001600020601a0160006014815260200190815260200160002054145b156120dc576001915050612630565b5b600160086000868152602001908152602001600020601d0160008573ffffffffffffffffffffffffffffffffffffffff1673ffffffffffffffffffffffffffffffffffffffff168152602001908152602001600020601a01600080600585612145919061305e565b61214f9190612df0565b8152602001908152602001600020541480156121ea5750600160086000868152602001908152602001600020601d0160008573ffffffffffffffffffffffffffffffffffffffff1673ffffffffffffffffffffffffffffffffffffffff168152602001908152602001600020601a01600060016005856121cf919061305e565b6121d99190612df0565b815260200190815260200160002054145b80156122755750600160086000868152602001908152602001600020601d0160008573ffffffffffffffffffffffffffffffffffffffff1673ffffffffffffffffffffffffffffffffffffffff168152602001908152602001600020601a016000600260058561225a919061305e565b6122649190612df0565b815260200190815260200160002054145b80156123005750600160086000868152602001908152602001600020601d0160008573ffffffffffffffffffffffffffffffffffffffff1673ffffffffffffffffffffffffffffffffffffffff168152602001908152602001600020601a01600060036005856122e5919061305e565b6122ef9190612df0565b815260200190815260200160002054145b801561238b5750600160086000868152602001908152602001600020601d0160008573ffffffffffffffffffffffffffffffffffffffff1673ffffffffffffffffffffffffffffffffffffffff168152602001908152602001600020601a0160006004600585612370919061305e565b61237a9190612df0565b815260200190815260200160002054145b1561239a576001915050612630565b600160086000868152602001908152602001600020601d0160008573ffffffffffffffffffffffffffffffffffffffff1673ffffffffffffffffffffffffffffffffffffffff168152602001908152602001600020601a0160008360006124019190612df0565b8152602001908152602001600020541480156124905750600160086000868152602001908152602001600020601d0160008573ffffffffffffffffffffffffffffffffffffffff1673ffffffffffffffffffffffffffffffffffffffff168152602001908152602001600020601a01600083600561247f9190612df0565b815260200190815260200160002054145b801561250f5750600160086000868152602001908152602001600020601d0160008573ffffffffffffffffffffffffffffffffffffffff1673ffffffffffffffffffffffffffffffffffffffff168152602001908152602001600020601a01600083600a6124fe9190612df0565b815260200190815260200160002054145b801561258e5750600160086000868152602001908152602001600020601d0160008573ffffffffffffffffffffffffffffffffffffffff1673ffffffffffffffffffffffffffffffffffffffff168152602001908152602001600020601a01600083600f61257d9190612df0565b815260200190815260200160002054145b801561260d5750600160086000868152602001908152602001600020601d0160008573ffffffffffffffffffffffffffffffffffffffff1673ffffffffffffffffffffffffffffffffffffffff168152602001908152602001600020601a0160008360146125fc9190612df0565b815260200190815260200160002054145b1561261c576001915050612630565b806001019050600581106120dd5760009150505b92915050565b6126d2848484846040516024016126509493929190613182565b6040516020818303038152906040527f7c4632a4000000000000000000000000000000000000000000000000000000007bffffffffffffffffffffffffffffffffffffffffffffffffffffffff19166020820180517bffffffffffffffffffffffffffffffffffffffffffffffffffffffff838183161783525050505061276e565b50505050565b60008060086000858152602001908152602001600020601d0160008473ffffffffffffffffffffffffffffffffffffffff1673ffffffffffffffffffffffffffffffffffffffff16815260200190815260200160002060000160009054906101000a900460ff1660025460086000878152602001908152602001600020600101546127639190612df0565b915091509250929050565b60008151905060006a636f6e736f6c652e6c6f679050602083016000808483855afa5050505050565b604051806103000160405280601890602082028036833780820191505090505090565b828054828255906000526020600020908101928215612833579160200282015b828111156128325782518260006101000a81548173ffffffffffffffffffffffffffffffffffffffff021916908373ffffffffffffffffffffffffffffffffffffffff160217905550916020019190600101906127da565b5b50905061284091906128e7565b5090565b604051806103200160405280601990602082028036833780820191505090505090565b8260198101928215612896579160200282015b8281111561289557825182559160200191906001019061287a565b5b5090506128a391906128e7565b5090565b82601881019282156128d6579160200282015b828111156128d55782518255916020019190600101906128ba565b5b5090506128e391906128e7565b5090565b5b808211156129005760008160009055506001016128e8565b5090565b6000819050919050565b61291781612904565b82525050565b6000602082019050612932600083018461290e565b92915050565b600080fd5b61294681612904565b811461295157600080fd5b50565b6000813590506129638161293d565b92915050565b60006020828403121561297f5761297e612938565b5b600061298d84828501612954565b91505092915050565b60008115159050919050565b6129ab81612996565b82525050565b600060189050919050565b600081905092915050565b6000819050919050565b6129da81612904565b82525050565b60006129ec83836129d1565b60208301905092915050565b6000602082019050919050565b612a0e816129b1565b612a1881846129bc565b9250612a23826129c7565b8060005b83811015612a54578151612a3b87826129e0565b9650612a46836129f8565b925050600181019050612a27565b505050505050565b600061032082019050612a7260008301856129a2565b612a7f6020830184612a05565b9392505050565b600073ffffffffffffffffffffffffffffffffffffffff82169050919050565b6000612ab182612a86565b9050919050565b612ac181612aa6565b8114612acc57600080fd5b50565b600081359050612ade81612ab8565b92915050565b60008060408385031215612afb57612afa612938565b5b6000612b0985828601612954565b9250506020612b1a85828601612acf565b9150509250929050565b6000604082019050612b3960008301856129a2565b612b46602083018461290e565b9392505050565b612b5681612aa6565b82525050565b6000602082019050612b716000830184612b4d565b92915050565b6000602082019050612b8c60008301846129a2565b92915050565b612b9b81612996565b8114612ba657600080fd5b50565b600081359050612bb881612b92565b92915050565b600080600080600060a08688031215612bda57612bd9612938565b5b6000612be888828901612954565b9550506020612bf988828901612954565b9450506040612c0a88828901612954565b9350506060612c1b88828901612ba9565b9250506080612c2c88828901612954565b9150509295509295909350565b60008060408385031215612c5057612c4f612938565b5b6000612c5e85828601612acf565b9250506020612c6f85828601612954565b9150509250929050565b600060199050919050565b600081905092915050565b6000819050919050565b6000602082019050919050565b612caf81612c79565b612cb98184612c84565b9250612cc482612c8f565b8060005b83811015612cf5578151612cdc87826129e0565b9650612ce783612c99565b925050600181019050612cc8565b505050505050565b600061032082019050612d136000830184612ca6565b92915050565b6000606082019050612d2e6000830186612b4d565b612d3b6020830185612b4d565b612d48604083018461290e565b949350505050565b600081519050612d5f81612b92565b92915050565b600060208284031215612d7b57612d7a612938565b5b6000612d8984828501612d50565b91505092915050565b7f4e487b7100000000000000000000000000000000000000000000000000000000600052603260045260246000fd5b7f4e487b7100000000000000000000000000000000000000000000000000000000600052601160045260246000fd5b6000612dfb82612904565b9150612e0683612904565b9250827fffffffffffffffffffffffffffffffffffffffffffffffffffffffffffffffff03821115612e3b57612e3a612dc1565b5b828201905092915050565b6000612e5182612904565b9150612e5c83612904565b925082821015612e6f57612e6e612dc1565b5b828203905092915050565b7f4e487b7100000000000000000000000000000000000000000000000000000000600052604160045260246000fd5b6000604082019050612ebe6000830185612b4d565b612ecb602083018461290e565b9392505050565b7f4e487b7100000000000000000000000000000000000000000000000000000000600052602160045260246000fd5b600061032082019050612f176000830185612a05565b612f2561030083018461290e565b9392505050565b6000819050919050565b612f47612f4282612904565b612f2c565b82525050565b60008160601b9050919050565b6000612f6582612f4d565b9050919050565b6000612f7782612f5a565b9050919050565b612f8f612f8a82612aa6565b612f6c565b82525050565b6000612fa18285612f36565b602082019150612fb18284612f7e565b6014820191508190509392505050565b6000612fcd8286612f36565b602082019150612fdd8285612f7e565b601482019150612fed8284612f36565b602082019150819050949350505050565b7f4e487b7100000000000000000000000000000000000000000000000000000000600052601260045260246000fd5b600061303882612904565b915061304383612904565b92508261305357613052612ffe565b5b828206905092915050565b600061306982612904565b915061307483612904565b9250817fffffffffffffffffffffffffffffffffffffffffffffffffffffffffffffffff04831182151516156130ad576130ac612dc1565b5b828202905092915050565b60006130c382612904565b91506130ce83612904565b9250826130de576130dd612ffe565b5b828204905092915050565b600081519050919050565b600082825260208201905092915050565b60005b83811015613123578082015181840152602081019050613108565b83811115613132576000848401525b50505050565b6000601f19601f8301169050919050565b6000613154826130e9565b61315e81856130f4565b935061316e818560208601613105565b61317781613138565b840191505092915050565b6000608082019050818103600083015261319c8187613149565b90506131ab602083018661290e565b81810360408301526131bd8185613149565b90506131cc6060830184612b4d565b9594505050505056fea26469706673582212209345593ab971cdcc6b12ef7ed679842da661232fd01cde04aad4767d910ca57564736f6c63430008080033",
  "devdoc": {
    "events": {
      "Drawed(uint256,uint256,uint256[24],uint256)": {
        "details": "bingoRound == 0: no Bingo; bingoRound > 0: bingo in number of rounds"
      }
    },
    "kind": "dev",
    "methods": {
      "checkWinner(uint256,address)": {
        "params": {
          "_gameRound": "the round of game id",
          "_player": "player address of this round of game"
        }
      },
      "claimPrize(uint256)": {
        "details": "Normally player dont need to call this function, in case of draw function errorIf return bet is true, player needs to call this function to get the token back",
        "params": {
          "_gameRound": "the round of game id that player joined"
        }
      },
      "drawWinner(uint256)": {
        "details": "if one game is drawed, other players in this round",
        "params": {
          "_gameRound": "the round of game id that player joined"
        }
      },
      "getPlayerGameBoard(address,uint256)": {
        "params": {
          "_gameRound": "the round of game id",
          "_player": "player address of this round of game"
        }
      },
      "getRoundBingoResult(uint256)": {
        "params": {
          "_gameRound": "the round of game id"
        }
      },
      "joinCurrentGameWithBet(uint256)": {
        "details": "Worst case of nobody has a bingo for 4 players are about 24356551 gas within 0 - 64 as numbers that this contract generated for bingo game with 24 winning numbers generated",
        "params": {
          "_gameRoundToJoin": "the round of game id"
        }
      }
    },
    "version": 1
  },
  "userdoc": {
    "events": {
      "Claimed(address,uint256)": {
        "notice": "Event emit when a player claimed prize"
      },
      "Created(address,uint256,uint256)": {
        "notice": "Event emit when player create a new game"
      },
      "Drawed(uint256,uint256,uint256[24],uint256)": {
        "notice": "Event emit when a game is drawed"
      },
      "Joined(address,uint256)": {
        "notice": "Event emit when player joins a existing game"
      }
    },
    "kind": "user",
    "methods": {
      "BingoToken()": {
        "notice": "Each player pays an ERC20 entry fee, transferred on join"
      },
      "admin()": {
        "notice": "Admin can update the entry fee, join duration, and turn duration"
      },
      "betAmountForBINGO()": {
        "notice": "`betAmountForBINGO` sets to 1 token as default to save gas"
      },
      "checkWinner(uint256,address)": {
        "notice": "Check if player is the the winner of this game round, and returns bool with winning prize to claim"
      },
      "claimPrize(uint256)": {
        "notice": "Players claim prize if retrun bet is true or there is only one player in this game round"
      },
      "constructor": {
        "notice": "Deploying Bingo Token first before deploying this contract"
      },
      "drawWinner(uint256)": {
        "notice": "Players draw winner of this game round or claim prize"
      },
      "getPlayerGameBoard(address,uint256)": {
        "notice": "Get player game board numbers in a uint256 array"
      },
      "getRoundBingoResult(uint256)": {
        "notice": "Get the Bingo result of this round of game and winning numbers"
      },
      "joinCurrentGameWithBet(uint256)": {
        "notice": "Players join current game and generate their game board"
      },
      "joinDuration()": {
        "notice": "Games have a minimum join duration before start`joinDuration` sets to 180 seconds as default to save gas"
      },
      "maxPlayerNum()": {
        "notice": "maxPlayerNum sets the max player numbers in a game, default as 4 due to out of gas problem"
      },
      "returnBet()": {
        "notice": "returnBet sets the contract whether return player entry fee or not"
      },
      "setConfig(uint256,uint256,uint256,bool,uint256)": {
        "notice": "set config for the game, such as join durations, turn durations, bet amount for bingo game, returnBet boolean for if game returns no-winner game, max player numbers in one game"
      },
      "startNewGameWithBet()": {
        "notice": "player start a new with game board generated"
      },
      "turnDuration()": {
        "notice": "Games have a minimum turn duration between draws`turnDuration` sets to 180 seconds as default to save gas"
      }
    },
    "version": 1
  },
  "storageLayout": {
    "storage": [
      {
        "astId": 1578,
        "contract": "contracts/BingoGame.sol:Bingo",
        "label": "gameRoundNow",
        "offset": 0,
        "slot": "0",
        "type": "t_uint256"
      },
      {
        "astId": 1581,
        "contract": "contracts/BingoGame.sol:Bingo",
        "label": "admin",
        "offset": 0,
        "slot": "1",
        "type": "t_address"
      },
      {
        "astId": 1585,
        "contract": "contracts/BingoGame.sol:Bingo",
        "label": "joinDuration",
        "offset": 0,
        "slot": "2",
        "type": "t_uint256"
      },
      {
        "astId": 1589,
        "contract": "contracts/BingoGame.sol:Bingo",
        "label": "turnDuration",
        "offset": 0,
        "slot": "3",
        "type": "t_uint256"
      },
      {
        "astId": 1592,
        "contract": "contracts/BingoGame.sol:Bingo",
        "label": "BingoToken",
        "offset": 0,
        "slot": "4",
        "type": "t_address"
      },
      {
        "astId": 1596,
        "contract": "contracts/BingoGame.sol:Bingo",
        "label": "betAmountForBINGO",
        "offset": 0,
        "slot": "5",
        "type": "t_uint256"
      },
      {
        "astId": 1599,
        "contract": "contracts/BingoGame.sol:Bingo",
        "label": "returnBet",
        "offset": 0,
        "slot": "6",
        "type": "t_bool"
      },
      {
        "astId": 1603,
        "contract": "contracts/BingoGame.sol:Bingo",
        "label": "maxPlayerNum",
        "offset": 0,
        "slot": "7",
        "type": "t_uint256"
      },
      {
        "astId": 1609,
        "contract": "contracts/BingoGame.sol:Bingo",
        "label": "gameRounds",
        "offset": 0,
        "slot": "8",
        "type": "t_mapping(t_uint256,t_struct(gameRound)1576_storage)"
      }
    ],
    "types": {
      "t_address": {
        "encoding": "inplace",
        "label": "address",
        "numberOfBytes": "20"
      },
      "t_array(t_address)dyn_storage": {
        "base": "t_address",
        "encoding": "dynamic_array",
        "label": "address[]",
        "numberOfBytes": "32"
      },
      "t_array(t_uint256)24_storage": {
        "base": "t_uint256",
        "encoding": "inplace",
        "label": "uint256[24]",
        "numberOfBytes": "768"
      },
      "t_array(t_uint256)25_storage": {
        "base": "t_uint256",
        "encoding": "inplace",
        "label": "uint256[25]",
        "numberOfBytes": "800"
      },
      "t_bool": {
        "encoding": "inplace",
        "label": "bool",
        "numberOfBytes": "1"
      },
      "t_enum(gameStage)1536": {
        "encoding": "inplace",
        "label": "enum Bingo.gameStage",
        "numberOfBytes": "1"
      },
      "t_mapping(t_address,t_struct(player)1549_storage)": {
        "encoding": "mapping",
        "key": "t_address",
        "label": "mapping(address => struct Bingo.player)",
        "numberOfBytes": "32",
        "value": "t_struct(player)1549_storage"
      },
      "t_mapping(t_uint256,t_struct(gameRound)1576_storage)": {
        "encoding": "mapping",
        "key": "t_uint256",
        "label": "mapping(uint256 => struct Bingo.gameRound)",
        "numberOfBytes": "32",
        "value": "t_struct(gameRound)1576_storage"
      },
      "t_mapping(t_uint256,t_uint256)": {
        "encoding": "mapping",
        "key": "t_uint256",
        "label": "mapping(uint256 => uint256)",
        "numberOfBytes": "32",
        "value": "t_uint256"
      },
      "t_struct(gameRound)1576_storage": {
        "encoding": "inplace",
        "label": "struct Bingo.gameRound",
        "members": [
          {
            "astId": 1552,
            "contract": "contracts/BingoGame.sol:Bingo",
            "label": "drawing",
            "offset": 0,
            "slot": "0",
            "type": "t_bool"
          },
          {
            "astId": 1555,
            "contract": "contracts/BingoGame.sol:Bingo",
            "label": "winnerAnnounced",
            "offset": 1,
            "slot": "0",
            "type": "t_bool"
          },
          {
            "astId": 1557,
            "contract": "contracts/BingoGame.sol:Bingo",
            "label": "startTime",
            "offset": 0,
            "slot": "1",
            "type": "t_uint256"
          },
          {
            "astId": 1559,
            "contract": "contracts/BingoGame.sol:Bingo",
            "label": "bingo",
            "offset": 0,
            "slot": "2",
            "type": "t_uint256"
          },
          {
            "astId": 1563,
            "contract": "contracts/BingoGame.sol:Bingo",
            "label": "winner",
            "offset": 0,
            "slot": "3",
            "type": "t_array(t_address)dyn_storage"
          },
          {
            "astId": 1566,
            "contract": "contracts/BingoGame.sol:Bingo",
            "label": "playersArray",
            "offset": 0,
            "slot": "4",
            "type": "t_array(t_address)dyn_storage"
          },
          {
            "astId": 1570,
            "contract": "contracts/BingoGame.sol:Bingo",
            "label": "winningNumders",
            "offset": 0,
            "slot": "5",
            "type": "t_array(t_uint256)24_storage"
          },
          {
            "astId": 1575,
            "contract": "contracts/BingoGame.sol:Bingo",
            "label": "players",
            "offset": 0,
            "slot": "29",
            "type": "t_mapping(t_address,t_struct(player)1549_storage)"
          }
        ],
        "numberOfBytes": "960"
      },
      "t_struct(player)1549_storage": {
        "encoding": "inplace",
        "label": "struct Bingo.player",
        "members": [
          {
            "astId": 1539,
            "contract": "contracts/BingoGame.sol:Bingo",
            "label": "stage",
            "offset": 0,
            "slot": "0",
            "type": "t_enum(gameStage)1536"
          },
          {
            "astId": 1543,
            "contract": "contracts/BingoGame.sol:Bingo",
            "label": "gameBoard",
            "offset": 0,
            "slot": "1",
            "type": "t_array(t_uint256)25_storage"
          },
          {
            "astId": 1548,
            "contract": "contracts/BingoGame.sol:Bingo",
            "label": "gameBoardMatchs",
            "offset": 0,
            "slot": "26",
            "type": "t_mapping(t_uint256,t_uint256)"
          }
        ],
        "numberOfBytes": "864"
      },
      "t_uint256": {
        "encoding": "inplace",
        "label": "uint256",
        "numberOfBytes": "32"
      }
    }
  }
}