{
  "address": "0xc26aBaa046bEd3ab51F0d50081a325032C266a90",
  "abi": [
    {
      "inputs": [
        {
          "internalType": "address",
          "name": "_bingoTokenAddress",
          "type": "address"
        }
      ],
      "stateMutability": "nonpayable",
      "type": "constructor"
    },
    {
      "inputs": [],
      "name": "erorr__entryFee",
      "type": "error"
    },
    {
      "inputs": [],
      "name": "error__drawsNotStared",
      "type": "error"
    },
    {
      "inputs": [],
      "name": "error__exceedLimitPlayersInOneGame",
      "type": "error"
    },
    {
      "inputs": [],
      "name": "error__gameStarted",
      "type": "error"
    },
    {
      "inputs": [],
      "name": "error__gameWinnerDrawed",
      "type": "error"
    },
    {
      "inputs": [],
      "name": "error__gameWinnerNotDrawed",
      "type": "error"
    },
    {
      "inputs": [],
      "name": "error__inGameAlready",
      "type": "error"
    },
    {
      "inputs": [],
      "name": "error__notAdmin",
      "type": "error"
    },
    {
      "inputs": [],
      "name": "error__notInGameOrClaimedRewards",
      "type": "error"
    },
    {
      "inputs": [],
      "name": "error__winnerIsDRAWING",
      "type": "error"
    },
    {
      "anonymous": false,
      "inputs": [
        {
          "indexed": true,
          "internalType": "address",
          "name": "player",
          "type": "address"
        },
        {
          "indexed": true,
          "internalType": "uint256",
          "name": "Claimed",
          "type": "uint256"
        }
      ],
      "name": "Claimed",
      "type": "event"
    },
    {
      "anonymous": false,
      "inputs": [
        {
          "indexed": true,
          "internalType": "address",
          "name": "creator",
          "type": "address"
        },
        {
          "indexed": true,
          "internalType": "uint256",
          "name": "roundCreated",
          "type": "uint256"
        },
        {
          "indexed": true,
          "internalType": "uint256",
          "name": "timeCreated",
          "type": "uint256"
        }
      ],
      "name": "Created",
      "type": "event"
    },
    {
      "anonymous": false,
      "inputs": [
        {
          "indexed": true,
          "internalType": "uint256",
          "name": "gameRound",
          "type": "uint256"
        },
        {
          "indexed": true,
          "internalType": "uint256",
          "name": "playersNum",
          "type": "uint256"
        },
        {
          "indexed": false,
          "internalType": "uint256[24]",
          "name": "winningNumbers",
          "type": "uint256[24]"
        },
        {
          "indexed": false,
          "internalType": "uint256",
          "name": "bingoRound",
          "type": "uint256"
        }
      ],
      "name": "Drawed",
      "type": "event"
    },
    {
      "anonymous": false,
      "inputs": [
        {
          "indexed": true,
          "internalType": "address",
          "name": "player",
          "type": "address"
        },
        {
          "indexed": true,
          "internalType": "uint256",
          "name": "roundJoined",
          "type": "uint256"
        }
      ],
      "name": "Joined",
      "type": "event"
    },
    {
      "inputs": [],
      "name": "BingoToken",
      "outputs": [
        {
          "internalType": "address",
          "name": "",
          "type": "address"
        }
      ],
      "stateMutability": "view",
      "type": "function"
    },
    {
      "inputs": [],
      "name": "admin",
      "outputs": [
        {
          "internalType": "address",
          "name": "",
          "type": "address"
        }
      ],
      "stateMutability": "view",
      "type": "function"
    },
    {
      "inputs": [],
      "name": "betAmountForBINGO",
      "outputs": [
        {
          "internalType": "uint256",
          "name": "",
          "type": "uint256"
        }
      ],
      "stateMutability": "view",
      "type": "function"
    },
    {
      "inputs": [
        {
          "internalType": "uint256",
          "name": "_gameRound",
          "type": "uint256"
        },
        {
          "internalType": "address",
          "name": "_player",
          "type": "address"
        }
      ],
      "name": "checkWinner",
      "outputs": [
        {
          "internalType": "bool",
          "name": "",
          "type": "bool"
        },
        {
          "internalType": "uint256",
          "name": "",
          "type": "uint256"
        }
      ],
      "stateMutability": "view",
      "type": "function"
    },
    {
      "inputs": [
        {
          "internalType": "uint256",
          "name": "_gameRound",
          "type": "uint256"
        }
      ],
      "name": "claimPrize",
      "outputs": [],
      "stateMutability": "nonpayable",
      "type": "function"
    },
    {
      "inputs": [
        {
          "internalType": "uint256",
          "name": "_gameRound",
          "type": "uint256"
        }
      ],
      "name": "drawWinner",
      "outputs": [],
      "stateMutability": "nonpayable",
      "type": "function"
    },
    {
      "inputs": [],
      "name": "gameRoundNow",
      "outputs": [
        {
          "internalType": "uint256",
          "name": "",
          "type": "uint256"
        }
      ],
      "stateMutability": "view",
      "type": "function"
    },
    {
      "inputs": [
        {
          "internalType": "address",
          "name": "_player",
          "type": "address"
        },
        {
          "internalType": "uint256",
          "name": "_gameRound",
          "type": "uint256"
        }
      ],
      "name": "getPlayerGameBoard",
      "outputs": [
        {
          "internalType": "uint256[25]",
          "name": "",
          "type": "uint256[25]"
        }
      ],
      "stateMutability": "view",
      "type": "function"
    },
    {
      "inputs": [
        {
          "internalType": "uint256",
          "name": "_gameRound",
          "type": "uint256"
        }
      ],
      "name": "getRoundBingoResult",
      "outputs": [
        {
          "internalType": "bool",
          "name": "",
          "type": "bool"
        },
        {
          "internalType": "uint256[24]",
          "name": "",
          "type": "uint256[24]"
        }
      ],
      "stateMutability": "view",
      "type": "function"
    },
    {
      "inputs": [
        {
          "internalType": "uint256",
          "name": "_gameRoundToJoin",
          "type": "uint256"
        }
      ],
      "name": "joinCurrentGameWithBet",
      "outputs": [],
      "stateMutability": "nonpayable",
      "type": "function"
    },
    {
      "inputs": [],
      "name": "joinDuration",
      "outputs": [
        {
          "internalType": "uint256",
          "name": "",
          "type": "uint256"
        }
      ],
      "stateMutability": "view",
      "type": "function"
    },
    {
      "inputs": [],
      "name": "maxPlayerNum",
      "outputs": [
        {
          "internalType": "uint256",
          "name": "",
          "type": "uint256"
        }
      ],
      "stateMutability": "view",
      "type": "function"
    },
    {
      "inputs": [],
      "name": "returnBet",
      "outputs": [
        {
          "internalType": "bool",
          "name": "",
          "type": "bool"
        }
      ],
      "stateMutability": "view",
      "type": "function"
    },
    {
      "inputs": [
        {
          "internalType": "uint256",
          "name": "_joinDuration",
          "type": "uint256"
        },
        {
          "internalType": "uint256",
          "name": "_turnDuration",
          "type": "uint256"
        },
        {
          "internalType": "uint256",
          "name": "_betAmountForBINGO",
          "type": "uint256"
        },
        {
          "internalType": "bool",
          "name": "_returnBet",
          "type": "bool"
        },
        {
          "internalType": "uint256",
          "name": "_maxPlayerNum",
          "type": "uint256"
        }
      ],
      "name": "setConfig",
      "outputs": [],
      "stateMutability": "nonpayable",
      "type": "function"
    },
    {
      "inputs": [],
      "name": "startNewGameWithBet",
      "outputs": [],
      "stateMutability": "nonpayable",
      "type": "function"
    },
    {
      "inputs": [],
      "name": "turnDuration",
      "outputs": [
        {
          "internalType": "uint256",
          "name": "",
          "type": "uint256"
        }
      ],
      "stateMutability": "view",
      "type": "function"
    },
    {
      "inputs": [
        {
          "internalType": "address",
          "name": "_erc20ContractAddress",
          "type": "address"
        },
        {
          "internalType": "uint256",
          "name": "_amount",
          "type": "uint256"
        },
        {
          "internalType": "address",
          "name": "_to",
          "type": "address"
        }
      ],
      "name": "withdrawToken",
      "outputs": [],
      "stateMutability": "nonpayable",
      "type": "function"
    }
  ],
  "transactionHash": "0x0e71215056afa5118707e56b92a0d1b20ac6bbc7ecb638e654d3fe554a5fcd2e",
  "args": [
    "0x77262277047f38f647C5b7eed177767eD0777D83"
  ],
  "numDeployments": 1,
  "solcInputHash": "a9d3666c8f489044c26bfe759c515dd3",
  "bytecode": "0x608060405260b460025560b4600355670de0b6b3a764000060055560046007553480156200002c57600080fd5b506040516200366638038062003666833981810160405281019062000052919062000145565b80600460006101000a81548173ffffffffffffffffffffffffffffffffffffffff021916908373ffffffffffffffffffffffffffffffffffffffff16021790555033600160006101000a81548173ffffffffffffffffffffffffffffffffffffffff021916908373ffffffffffffffffffffffffffffffffffffffff1602179055505062000177565b600080fd5b600073ffffffffffffffffffffffffffffffffffffffff82169050919050565b60006200010d82620000e0565b9050919050565b6200011f8162000100565b81146200012b57600080fd5b50565b6000815190506200013f8162000114565b92915050565b6000602082840312156200015e576200015d620000db565b5b60006200016e848285016200012e565b91505092915050565b6134df80620001876000396000f3fe608060405234801561001057600080fd5b506004361061010b5760003560e01c80634fbd239b116100a2578063884c0fe911610071578063884c0fe91461028457806395f5d1fd146102a2578063bdff7d88146102d2578063d7098154146102ee578063f851a4401461030a5761010b565b80634fbd239b1461021057806360b2a56a1461022e57806362e838ef1461024a578063744c552f146102685761010b565b8063172bf854116100de578063172bf85414610187578063227b0354146101a557806327249ee8146101d65780633ccdbb28146101f45761010b565b806305066917146101105780630b3ca74d1461012e578063108027491461013857806313b3da5d14610156575b600080fd5b610118610328565b6040516101259190612b32565b60405180910390f35b61013661032e565b005b6101406104a0565b60405161014d9190612b32565b60405180910390f35b610170600480360381019061016b9190612b7e565b6104a6565b60405161017e929190612c71565b60405180910390f35b61018f610528565b60405161019c9190612b32565b60405180910390f35b6101bf60048036038101906101ba9190612cf9565b61052e565b6040516101cd929190612d39565b60405180910390f35b6101de610674565b6040516101eb9190612b32565b60405180910390f35b61020e60048036038101906102099190612d62565b61067a565b005b610218610868565b6040516102259190612dc4565b60405180910390f35b61024860048036038101906102439190612b7e565b61088e565b005b610252611134565b60405161025f9190612ddf565b60405180910390f35b610282600480360381019061027d9190612e26565b611147565b005b61028c61120b565b6040516102999190612b32565b60405180910390f35b6102bc60048036038101906102b79190612ea1565b611211565b6040516102c99190612f65565b60405180910390f35b6102ec60048036038101906102e79190612b7e565b6112b3565b005b61030860048036038101906103039190612b7e565b6114bc565b005b6103126119aa565b60405161031f9190612dc4565b60405180910390f35b60035481565b60011515600460009054906101000a900473ffffffffffffffffffffffffffffffffffffffff1673ffffffffffffffffffffffffffffffffffffffff166323b872dd33306005546040518463ffffffff1660e01b815260040161039393929190612f81565b602060405180830381600087803b1580156103ad57600080fd5b505af11580156103c1573d6000803e3d6000fd5b505050506040513d601f19601f820116820180604052508101906103e59190612fcd565b15151461041e576040517f2ff987e700000000000000000000000000000000000000000000000000000000815260040160405180910390fd5b60008081546001019190508190555060008054905042600860008381526020019081526020016000206001018190555061045833826119d0565b42813373ffffffffffffffffffffffffffffffffffffffff167f95b18bbe5373dcbe675d3ab2ae6e3888392575c51b8b8c9c3cbbdb431af1929960405160405180910390a450565b60075481565b60006104b06129ac565b60006008600085815260200190815260200160002060020154116008600085815260200190815260200160002060050180601880602002604051908101604052809291908260188015610518576020028201915b815481526020019060010190808311610504575b5050505050905091509150915091565b60025481565b6000806000600860008681526020019081526020016000206003018054806020026020016040519081016040528092919081815260200182805480156105c957602002820191906000526020600020905b8160009054906101000a900473ffffffffffffffffffffffffffffffffffffffff1673ffffffffffffffffffffffffffffffffffffffff168152602001906001019080831161057f575b5050505050905060008082511115610663575b8473ffffffffffffffffffffffffffffffffffffffff1682828151811061060657610605612ffa565b5b602002602001015173ffffffffffffffffffffffffffffffffffffffff1614156106475760006106368787611cd6565b90506001819450945050505061066d565b806001019050815181106105dc5760008093509350505061066d565b6000809350935050505b9250929050565b60005481565b600160009054906101000a900473ffffffffffffffffffffffffffffffffffffffff1673ffffffffffffffffffffffffffffffffffffffff163373ffffffffffffffffffffffffffffffffffffffff1614610701576040517f9639a84e00000000000000000000000000000000000000000000000000000000815260040160405180910390fd5b8273ffffffffffffffffffffffffffffffffffffffff1663095ea7b330846040518363ffffffff1660e01b815260040161073c929190613029565b602060405180830381600087803b15801561075657600080fd5b505af115801561076a573d6000803e3d6000fd5b505050506040513d601f19601f8201168201806040525081019061078e9190612fcd565b5060008373ffffffffffffffffffffffffffffffffffffffff166323b872dd3084866040518463ffffffff1660e01b81526004016107ce93929190612f81565b602060405180830381600087803b1580156107e857600080fd5b505af11580156107fc573d6000803e3d6000fd5b505050506040513d601f19601f820116820180604052508101906108209190612fcd565b905080610862576040517f08c379a0000000000000000000000000000000000000000000000000000000008152600401610859906130af565b60405180910390fd5b50505050565b600460009054906101000a900473ffffffffffffffffffffffffffffffffffffffff1681565b8060035460025460086000848152602001908152602001600020600101546108b691906130fe565b6108c091906130fe565b4210156108f9576040517faf30eb6800000000000000000000000000000000000000000000000000000000815260040160405180910390fd5b6008600082815260200190815260200160002060000160009054906101000a900460ff1615610954576040517ffc1cee5000000000000000000000000000000000000000000000000000000000815260040160405180910390fd5b60016008600083815260200190815260200160002060000160006101000a81548160ff021916908315150217905550600115156008600084815260200190815260200160002060000160019054906101000a900460ff16151514156109e5576040517f9162ee7d00000000000000000000000000000000000000000000000000000000815260040160405180910390fd5b600060086000848152602001908152602001600020600401805480602002602001604051908101604052809291908181526020018280548015610a7d57602002820191906000526020600020905b8160009054906101000a900473ffffffffffffffffffffffffffffffffffffffff1673ffffffffffffffffffffffffffffffffffffffff1681526020019060010190808311610a33575b50505050509050610a8c6129ac565b60018251111561107e57600060189050610aa585611e28565b915060008060005b600091505b600090506000610adc878581518110610ace57610acd612ffa565b5b60200260200101518a611211565b90505b808260198110610af257610af1612ffa565b5b6020020151868460188110610b0a57610b09612ffa565b5b60200201511415610b9d576001600860008b8152602001908152602001600020601d016000898781518110610b4257610b41612ffa565b5b602002602001015173ffffffffffffffffffffffffffffffffffffffff1673ffffffffffffffffffffffffffffffffffffffff168152602001908152602001600020601a016000848152602001908152602001600020819055505b600b821415610bad578160010191505b8160010191506004821115610e4c57610be089888681518110610bd357610bd2612ffa565b5b6020026020010151611f41565b15610e4b57600185610bf29190613154565b831415610c8f57600860008a8152602001908152602001600020600301878581518110610c2257610c21612ffa565b5b60200260200101519080600181540180825580915050600190039060005260206000200160009091909190916101000a81548173ffffffffffffffffffffffffffffffffffffffff021916908373ffffffffffffffffffffffffffffffffffffffff160217905550610d95565b600067ffffffffffffffff811115610caa57610ca9613188565b5b604051908082528060200260200182016040528015610cd85781602001602082028036833780820191505090505b50600860008b81526020019081526020016000206003019080519060200190610d029291906129cf565b50600860008a8152602001908152602001600020600301878581518110610d2c57610d2b612ffa565b5b60200260200101519080600181540180825580915050600190039060005260206000200160009091909190916101000a81548173ffffffffffffffffffffffffffffffffffffffff021916908373ffffffffffffffffffffffffffffffffffffffff1602179055505b60018301945082600860008b815260200190815260200160002060020181905550610e466040518060400160405280601481526020017f46697273742042696e676f20696e20726f756e64000000000000000000000000815250846040518060400160405280601281526020017f666f7220706c61796572206164647265737300000000000000000000000000008152508a8881518110610e3957610e38612ffa565b5b602002602001015161284b565b610e55565b5b60198210610adf575b82600101925050838210610ab25782600101925085518310610aad57600092505b600080610e9d8a898781518110610e9057610e8f612ffa565b5b602002602001015161052e565b91509150811561106957600460009054906101000a900473ffffffffffffffffffffffffffffffffffffffff1673ffffffffffffffffffffffffffffffffffffffff1663a9059cbb898781518110610ef857610ef7612ffa565b5b6020026020010151836040518363ffffffff1660e01b8152600401610f1e929190613029565b602060405180830381600087803b158015610f3857600080fd5b505af1158015610f4c573d6000803e3d6000fd5b505050506040513d601f19601f82011682018060405250810190610f709190612fcd565b506002600860008c8152602001908152602001600020601d0160008a8881518110610f9e57610f9d612ffa565b5b602002602001015173ffffffffffffffffffffffffffffffffffffffff1673ffffffffffffffffffffffffffffffffffffffff16815260200190815260200160002060000160006101000a81548160ff02191690836002811115611005576110046131b7565b5b02179055508088868151811061101e5761101d612ffa565b5b602002602001015173ffffffffffffffffffffffffffffffffffffffff167fd8138f8a3f377c5259ca548e70e4c2de94f129f5a11036a15b69513cba2b426a60405160405180910390a35b846001019450505085518310610e7657505050505b60016008600086815260200190815260200160002060000160016101000a81548160ff0219169083151502179055508151847f46aef705aa56eecf91cff09c38b492bb00be62e9cc0dbb3f786810e7b875136b8360086000898152602001908152602001600020600201546040516110f79291906131e6565b60405180910390a3505060006008600083815260200190815260200160002060000160006101000a81548160ff0219169083151502179055505050565b600660009054906101000a900460ff1681565b600160009054906101000a900473ffffffffffffffffffffffffffffffffffffffff1673ffffffffffffffffffffffffffffffffffffffff163373ffffffffffffffffffffffffffffffffffffffff16146111ce576040517f9639a84e00000000000000000000000000000000000000000000000000000000815260040160405180910390fd5b84600281905550836003819055508260058190555081600660006101000a81548160ff021916908315150217905550806007819055505050505050565b60055481565b611219612a59565b60086000838152602001908152602001600020601d0160008473ffffffffffffffffffffffffffffffffffffffff1673ffffffffffffffffffffffffffffffffffffffff1681526020019081526020016000206001016019806020026040519081016040528092919082601980156112a6576020028201915b815481526020019060010190808311611292575b5050505050905092915050565b600754600160086000848152602001908152602001600020600401805490506112dc91906130fe565b1115611314576040517f9aa0271f00000000000000000000000000000000000000000000000000000000815260040160405180910390fd5b60008061132183336128ed565b9150915060006002811115611339576113386131b7565b5b82600281111561134c5761134b6131b7565b5b14611383576040517f70b48ea500000000000000000000000000000000000000000000000000000000815260040160405180910390fd5b804211156113bd576040517f496f3b7600000000000000000000000000000000000000000000000000000000815260040160405180910390fd5b60011515600460009054906101000a900473ffffffffffffffffffffffffffffffffffffffff1673ffffffffffffffffffffffffffffffffffffffff166323b872dd33306005546040518463ffffffff1660e01b815260040161142293929190612f81565b602060405180830381600087803b15801561143c57600080fd5b505af1158015611450573d6000803e3d6000fd5b505050506040513d601f19601f820116820180604052508101906114749190612fcd565b1515146114ad576040517f2ff987e700000000000000000000000000000000000000000000000000000000815260040160405180910390fd5b6114b733846119d0565b505050565b8060035460025460086000848152602001908152602001600020600101546114e491906130fe565b6114ee91906130fe565b421015611527576040517faf30eb6800000000000000000000000000000000000000000000000000000000815260040160405180910390fd5b6008600082815260200190815260200160002060000160009054906101000a900460ff1615611582576040517ffc1cee5000000000000000000000000000000000000000000000000000000000815260040160405180910390fd5b60016008600083815260200190815260200160002060000160006101000a81548160ff021916908315150217905550600160028111156115c5576115c46131b7565b5b60086000848152602001908152602001600020601d0160003373ffffffffffffffffffffffffffffffffffffffff1673ffffffffffffffffffffffffffffffffffffffff16815260200190815260200160002060000160009054906101000a900460ff16600281111561163b5761163a6131b7565b5b14611672576040517f6c8aeb7700000000000000000000000000000000000000000000000000000000815260040160405180910390fd5b6000600554905060008015156008600086815260200190815260200160002060000160019054906101000a900460ff16151514156116dc576040517fff07fcae00000000000000000000000000000000000000000000000000000000815260040160405180910390fd5b6000600860008681526020019081526020016000206002015411156117c6576117058433611cd6565b905060008111156117c157600460009054906101000a900473ffffffffffffffffffffffffffffffffffffffff1673ffffffffffffffffffffffffffffffffffffffff1663a9059cbb33836040518363ffffffff1660e01b815260040161176d929190613029565b602060405180830381600087803b15801561178757600080fd5b505af115801561179b573d6000803e3d6000fd5b505050506040513d601f19601f820116820180604052508101906117bf9190612fcd565b505b6118b2565b600160086000868152602001908152602001600020600401805490501115806117fb5750600660009054906101000a900460ff165b156118b157600460009054906101000a900473ffffffffffffffffffffffffffffffffffffffff1673ffffffffffffffffffffffffffffffffffffffff1663a9059cbb33846040518363ffffffff1660e01b815260040161185d929190613029565b602060405180830381600087803b15801561187757600080fd5b505af115801561188b573d6000803e3d6000fd5b505050506040513d601f19601f820116820180604052508101906118af9190612fcd565b505b5b600260086000868152602001908152602001600020601d0160003373ffffffffffffffffffffffffffffffffffffffff1673ffffffffffffffffffffffffffffffffffffffff16815260200190815260200160002060000160006101000a81548160ff0219169083600281111561192c5761192b6131b7565b5b0217905550803373ffffffffffffffffffffffffffffffffffffffff167fd8138f8a3f377c5259ca548e70e4c2de94f129f5a11036a15b69513cba2b426a60405160405180910390a3505060006008600083815260200190815260200160002060000160006101000a81548160ff0219169083151502179055505050565b600160009054906101000a900473ffffffffffffffffffffffffffffffffffffffff1681565b600160086000838152602001908152602001600020601d0160008473ffffffffffffffffffffffffffffffffffffffff1673ffffffffffffffffffffffffffffffffffffffff16815260200190815260200160002060000160006101000a81548160ff02191690836002811115611a4a57611a496131b7565b5b021790555060086000828152602001908152602001600020600401829080600181540180825580915050600190039060005260206000200160009091909190916101000a81548173ffffffffffffffffffffffffffffffffffffffff021916908373ffffffffffffffffffffffffffffffffffffffff1602179055506000611ad0612a59565b6000600143611adf9190613154565b40905060008160001c905060008133604051602001611aff92919061327a565b6040516020818303038152906040528051906020012060001c90505b6000600682901c11611b66576040823387604051602001611b3e939291906132a6565b6040516020818303038152906040528051906020012060001c611b619190613312565b611b78565b6040600682901c611b779190613312565b5b905080848660198110611b8e57611b8d612ffa565b5b602002018181525050600b851415611ba7578460010194505b84600101945060198510611b1b578360086000888152602001908152602001600020601d0160008973ffffffffffffffffffffffffffffffffffffffff1673ffffffffffffffffffffffffffffffffffffffff168152602001908152602001600020600101906019611c1a929190612a7c565b50600160086000888152602001908152602001600020601d0160008973ffffffffffffffffffffffffffffffffffffffff1673ffffffffffffffffffffffffffffffffffffffff168152602001908152602001600020601a016000600c815260200190815260200160002081905550853373ffffffffffffffffffffffffffffffffffffffff167f49f8fa5eee2e3f21251c2e968640dcaef35cb9332429eb059bb3cd56ddc2533d60405160405180910390a350505050505050565b60008060086000858152602001908152602001600020600301805480602002602001604051908101604052809291908181526020018280548015611d6f57602002820191906000526020600020905b8160009054906101000a900473ffffffffffffffffffffffffffffffffffffffff1673ffffffffffffffffffffffffffffffffffffffff1681526020019060010190808311611d25575b505050505090506000805b8473ffffffffffffffffffffffffffffffffffffffff16838381518110611da457611da3612ffa565b5b602002602001015173ffffffffffffffffffffffffffffffffffffffff161415611dd15780806001019150505b81600101915082518210611d7a5782516008600088815260200190815260200160002060040180549050600554611e089190613343565b82611e139190613343565b611e1d919061339d565b935050505092915050565b611e306129ac565b611e386129ac565b600080600143611e489190613154565b40905060008160001c905060008133604051602001611e6892919061327a565b6040516020818303038152906040528051906020012060001c90505b6000600682901c11611ecf576040823386604051602001611ea7939291906132a6565b6040516020818303038152906040528051906020012060001c611eca9190613312565b611ee1565b6040600682901c611ee09190613312565b5b905080858560188110611ef757611ef6612ffa565b5b60200201818152505083600101935060188410611e84578460086000898152602001908152602001600020600501906018611f33929190612abc565b508495505050505050919050565b600080600160086000868152602001908152602001600020601d0160008573ffffffffffffffffffffffffffffffffffffffff1673ffffffffffffffffffffffffffffffffffffffff168152602001908152602001600020601a016000808152602001908152602001600020541480156120235750600160086000868152602001908152602001600020601d0160008573ffffffffffffffffffffffffffffffffffffffff1673ffffffffffffffffffffffffffffffffffffffff168152602001908152602001600020601a0160006006815260200190815260200160002054145b80156120975750600160086000868152602001908152602001600020601d0160008573ffffffffffffffffffffffffffffffffffffffff1673ffffffffffffffffffffffffffffffffffffffff168152602001908152602001600020601a0160006012815260200190815260200160002054145b801561210b5750600160086000868152602001908152602001600020601d0160008573ffffffffffffffffffffffffffffffffffffffff1673ffffffffffffffffffffffffffffffffffffffff168152602001908152602001600020601a0160006018815260200190815260200160002054145b1561211a576001915050612845565b600160086000868152602001908152602001600020601d0160008573ffffffffffffffffffffffffffffffffffffffff1673ffffffffffffffffffffffffffffffffffffffff168152602001908152602001600020601a01600060048152602001908152602001600020541480156121fa5750600160086000868152602001908152602001600020601d0160008573ffffffffffffffffffffffffffffffffffffffff1673ffffffffffffffffffffffffffffffffffffffff168152602001908152602001600020601a0160006008815260200190815260200160002054145b801561226e5750600160086000868152602001908152602001600020601d0160008573ffffffffffffffffffffffffffffffffffffffff1673ffffffffffffffffffffffffffffffffffffffff168152602001908152602001600020601a0160006010815260200190815260200160002054145b80156122e25750600160086000868152602001908152602001600020601d0160008573ffffffffffffffffffffffffffffffffffffffff1673ffffffffffffffffffffffffffffffffffffffff168152602001908152602001600020601a0160006014815260200190815260200160002054145b156122f1576001915050612845565b5b600160086000868152602001908152602001600020601d0160008573ffffffffffffffffffffffffffffffffffffffff1673ffffffffffffffffffffffffffffffffffffffff168152602001908152602001600020601a0160008060058561235a9190613343565b61236491906130fe565b8152602001908152602001600020541480156123ff5750600160086000868152602001908152602001600020601d0160008573ffffffffffffffffffffffffffffffffffffffff1673ffffffffffffffffffffffffffffffffffffffff168152602001908152602001600020601a01600060016005856123e49190613343565b6123ee91906130fe565b815260200190815260200160002054145b801561248a5750600160086000868152602001908152602001600020601d0160008573ffffffffffffffffffffffffffffffffffffffff1673ffffffffffffffffffffffffffffffffffffffff168152602001908152602001600020601a016000600260058561246f9190613343565b61247991906130fe565b815260200190815260200160002054145b80156125155750600160086000868152602001908152602001600020601d0160008573ffffffffffffffffffffffffffffffffffffffff1673ffffffffffffffffffffffffffffffffffffffff168152602001908152602001600020601a01600060036005856124fa9190613343565b61250491906130fe565b815260200190815260200160002054145b80156125a05750600160086000868152602001908152602001600020601d0160008573ffffffffffffffffffffffffffffffffffffffff1673ffffffffffffffffffffffffffffffffffffffff168152602001908152602001600020601a01600060046005856125859190613343565b61258f91906130fe565b815260200190815260200160002054145b156125af576001915050612845565b600160086000868152602001908152602001600020601d0160008573ffffffffffffffffffffffffffffffffffffffff1673ffffffffffffffffffffffffffffffffffffffff168152602001908152602001600020601a01600083600061261691906130fe565b8152602001908152602001600020541480156126a55750600160086000868152602001908152602001600020601d0160008573ffffffffffffffffffffffffffffffffffffffff1673ffffffffffffffffffffffffffffffffffffffff168152602001908152602001600020601a01600083600561269491906130fe565b815260200190815260200160002054145b80156127245750600160086000868152602001908152602001600020601d0160008573ffffffffffffffffffffffffffffffffffffffff1673ffffffffffffffffffffffffffffffffffffffff168152602001908152602001600020601a01600083600a61271391906130fe565b815260200190815260200160002054145b80156127a35750600160086000868152602001908152602001600020601d0160008573ffffffffffffffffffffffffffffffffffffffff1673ffffffffffffffffffffffffffffffffffffffff168152602001908152602001600020601a01600083600f61279291906130fe565b815260200190815260200160002054145b80156128225750600160086000868152602001908152602001600020601d0160008573ffffffffffffffffffffffffffffffffffffffff1673ffffffffffffffffffffffffffffffffffffffff168152602001908152602001600020601a01600083601461281191906130fe565b815260200190815260200160002054145b15612831576001915050612845565b806001019050600581106122f25760009150505b92915050565b6128e7848484846040516024016128659493929190613456565b6040516020818303038152906040527f7c4632a4000000000000000000000000000000000000000000000000000000007bffffffffffffffffffffffffffffffffffffffffffffffffffffffff19166020820180517bffffffffffffffffffffffffffffffffffffffffffffffffffffffff8381831617835250505050612983565b50505050565b60008060086000858152602001908152602001600020601d0160008473ffffffffffffffffffffffffffffffffffffffff1673ffffffffffffffffffffffffffffffffffffffff16815260200190815260200160002060000160009054906101000a900460ff16600254600860008781526020019081526020016000206001015461297891906130fe565b915091509250929050565b60008151905060006a636f6e736f6c652e6c6f679050602083016000808483855afa5050505050565b604051806103000160405280601890602082028036833780820191505090505090565b828054828255906000526020600020908101928215612a48579160200282015b82811115612a475782518260006101000a81548173ffffffffffffffffffffffffffffffffffffffff021916908373ffffffffffffffffffffffffffffffffffffffff160217905550916020019190600101906129ef565b5b509050612a559190612afc565b5090565b604051806103200160405280601990602082028036833780820191505090505090565b8260198101928215612aab579160200282015b82811115612aaa578251825591602001919060010190612a8f565b5b509050612ab89190612afc565b5090565b8260188101928215612aeb579160200282015b82811115612aea578251825591602001919060010190612acf565b5b509050612af89190612afc565b5090565b5b80821115612b15576000816000905550600101612afd565b5090565b6000819050919050565b612b2c81612b19565b82525050565b6000602082019050612b476000830184612b23565b92915050565b600080fd5b612b5b81612b19565b8114612b6657600080fd5b50565b600081359050612b7881612b52565b92915050565b600060208284031215612b9457612b93612b4d565b5b6000612ba284828501612b69565b91505092915050565b60008115159050919050565b612bc081612bab565b82525050565b600060189050919050565b600081905092915050565b6000819050919050565b612bef81612b19565b82525050565b6000612c018383612be6565b60208301905092915050565b6000602082019050919050565b612c2381612bc6565b612c2d8184612bd1565b9250612c3882612bdc565b8060005b83811015612c69578151612c508782612bf5565b9650612c5b83612c0d565b925050600181019050612c3c565b505050505050565b600061032082019050612c876000830185612bb7565b612c946020830184612c1a565b9392505050565b600073ffffffffffffffffffffffffffffffffffffffff82169050919050565b6000612cc682612c9b565b9050919050565b612cd681612cbb565b8114612ce157600080fd5b50565b600081359050612cf381612ccd565b92915050565b60008060408385031215612d1057612d0f612b4d565b5b6000612d1e85828601612b69565b9250506020612d2f85828601612ce4565b9150509250929050565b6000604082019050612d4e6000830185612bb7565b612d5b6020830184612b23565b9392505050565b600080600060608486031215612d7b57612d7a612b4d565b5b6000612d8986828701612ce4565b9350506020612d9a86828701612b69565b9250506040612dab86828701612ce4565b9150509250925092565b612dbe81612cbb565b82525050565b6000602082019050612dd96000830184612db5565b92915050565b6000602082019050612df46000830184612bb7565b92915050565b612e0381612bab565b8114612e0e57600080fd5b50565b600081359050612e2081612dfa565b92915050565b600080600080600060a08688031215612e4257612e41612b4d565b5b6000612e5088828901612b69565b9550506020612e6188828901612b69565b9450506040612e7288828901612b69565b9350506060612e8388828901612e11565b9250506080612e9488828901612b69565b9150509295509295909350565b60008060408385031215612eb857612eb7612b4d565b5b6000612ec685828601612ce4565b9250506020612ed785828601612b69565b9150509250929050565b600060199050919050565b600081905092915050565b6000819050919050565b6000602082019050919050565b612f1781612ee1565b612f218184612eec565b9250612f2c82612ef7565b8060005b83811015612f5d578151612f448782612bf5565b9650612f4f83612f01565b925050600181019050612f30565b505050505050565b600061032082019050612f7b6000830184612f0e565b92915050565b6000606082019050612f966000830186612db5565b612fa36020830185612db5565b612fb06040830184612b23565b949350505050565b600081519050612fc781612dfa565b92915050565b600060208284031215612fe357612fe2612b4d565b5b6000612ff184828501612fb8565b91505092915050565b7f4e487b7100000000000000000000000000000000000000000000000000000000600052603260045260246000fd5b600060408201905061303e6000830185612db5565b61304b6020830184612b23565b9392505050565b600082825260208201905092915050565b7f5472616e73666572206661696c65640000000000000000000000000000000000600082015250565b6000613099600f83613052565b91506130a482613063565b602082019050919050565b600060208201905081810360008301526130c88161308c565b9050919050565b7f4e487b7100000000000000000000000000000000000000000000000000000000600052601160045260246000fd5b600061310982612b19565b915061311483612b19565b9250827fffffffffffffffffffffffffffffffffffffffffffffffffffffffffffffffff03821115613149576131486130cf565b5b828201905092915050565b600061315f82612b19565b915061316a83612b19565b92508282101561317d5761317c6130cf565b5b828203905092915050565b7f4e487b7100000000000000000000000000000000000000000000000000000000600052604160045260246000fd5b7f4e487b7100000000000000000000000000000000000000000000000000000000600052602160045260246000fd5b6000610320820190506131fc6000830185612c1a565b61320a610300830184612b23565b9392505050565b6000819050919050565b61322c61322782612b19565b613211565b82525050565b60008160601b9050919050565b600061324a82613232565b9050919050565b600061325c8261323f565b9050919050565b61327461326f82612cbb565b613251565b82525050565b6000613286828561321b565b6020820191506132968284613263565b6014820191508190509392505050565b60006132b2828661321b565b6020820191506132c28285613263565b6014820191506132d2828461321b565b602082019150819050949350505050565b7f4e487b7100000000000000000000000000000000000000000000000000000000600052601260045260246000fd5b600061331d82612b19565b915061332883612b19565b925082613338576133376132e3565b5b828206905092915050565b600061334e82612b19565b915061335983612b19565b9250817fffffffffffffffffffffffffffffffffffffffffffffffffffffffffffffffff0483118215151615613392576133916130cf565b5b828202905092915050565b60006133a882612b19565b91506133b383612b19565b9250826133c3576133c26132e3565b5b828204905092915050565b600081519050919050565b60005b838110156133f75780820151818401526020810190506133dc565b83811115613406576000848401525b50505050565b6000601f19601f8301169050919050565b6000613428826133ce565b6134328185613052565b93506134428185602086016133d9565b61344b8161340c565b840191505092915050565b60006080820190508181036000830152613470818761341d565b905061347f6020830186612b23565b8181036040830152613491818561341d565b90506134a06060830184612db5565b9594505050505056fea2646970667358221220f763d942dc9dbe37c7fabbc79db9ec909de26368aeb971b954b01692efbe7b0964736f6c63430008080033",
  "devdoc": {
    "events": {
      "Drawed(uint256,uint256,uint256[24],uint256)": {
        "details": "bingoRound == 0: no Bingo; bingoRound > 0: bingo in number of rounds"
      }
    },
    "kind": "dev",
    "methods": {
      "checkWinner(uint256,address)": {
        "params": {
          "_gameRound": "the round of game id",
          "_player": "player address of this round of game"
        }
      },
      "claimPrize(uint256)": {
        "details": "Normally player dont need to call this function, in case of draw function errorIf return bet is true, player needs to call this function to get the token back",
        "params": {
          "_gameRound": "the round of game id that player joined"
        }
      },
      "drawWinner(uint256)": {
        "details": "if one game is drawed, other players in this round",
        "params": {
          "_gameRound": "the round of game id that player joined"
        }
      },
      "getPlayerGameBoard(address,uint256)": {
        "params": {
          "_gameRound": "the round of game id",
          "_player": "player address of this round of game"
        }
      },
      "getRoundBingoResult(uint256)": {
        "params": {
          "_gameRound": "the round of game id"
        }
      },
      "joinCurrentGameWithBet(uint256)": {
        "details": "Worst case of nobody has a bingo for 4 players are about 24356551 gas within 0 - 64 as numbers that this contract generated for bingo game with 24 winning numbers generated",
        "params": {
          "_gameRoundToJoin": "the round of game id"
        }
      },
      "withdrawToken(address,uint256,address)": {
        "details": "this function helps people who accidentally transfer ERC20 token to our contract, and also withdraw Bingo Token as revenue"
      }
    },
    "version": 1
  },
  "userdoc": {
    "events": {
      "Claimed(address,uint256)": {
        "notice": "Event emit when a player claimed prize"
      },
      "Created(address,uint256,uint256)": {
        "notice": "Event emit when player create a new game"
      },
      "Drawed(uint256,uint256,uint256[24],uint256)": {
        "notice": "Event emit when a game is drawed"
      },
      "Joined(address,uint256)": {
        "notice": "Event emit when player joins a existing game"
      }
    },
    "kind": "user",
    "methods": {
      "BingoToken()": {
        "notice": "Each player pays an ERC20 entry fee, transferred on join"
      },
      "admin()": {
        "notice": "Admin can update the entry fee, join duration, and turn duration"
      },
      "betAmountForBINGO()": {
        "notice": "`betAmountForBINGO` sets to 1 token as default to save gas"
      },
      "checkWinner(uint256,address)": {
        "notice": "Check if player is the the winner of this game round, and returns bool with winning prize to claim"
      },
      "claimPrize(uint256)": {
        "notice": "Players claim prize if retrun bet is true or there is only one player in this game round"
      },
      "constructor": {
        "notice": "Deploying Bingo Token first before deploying this contract"
      },
      "drawWinner(uint256)": {
        "notice": "Players draw winner of this game round or claim prize"
      },
      "getPlayerGameBoard(address,uint256)": {
        "notice": "Get player game board numbers in a uint256 array"
      },
      "getRoundBingoResult(uint256)": {
        "notice": "Get the Bingo result of this round of game and winning numbers"
      },
      "joinCurrentGameWithBet(uint256)": {
        "notice": "Players join current game and generate their game board"
      },
      "joinDuration()": {
        "notice": "Games have a minimum join duration before start`joinDuration` sets to 180 seconds as default to save gas"
      },
      "maxPlayerNum()": {
        "notice": "maxPlayerNum sets the max player numbers in a game, default as 4 due to out of gas problem"
      },
      "returnBet()": {
        "notice": "returnBet sets the contract whether return player entry fee or not"
      },
      "setConfig(uint256,uint256,uint256,bool,uint256)": {
        "notice": "set config for the game, such as join durations, turn durations, bet amount for bingo game, returnBet boolean for if game returns no-winner game, max player numbers in one game"
      },
      "startNewGameWithBet()": {
        "notice": "player start a new with game board generated"
      },
      "turnDuration()": {
        "notice": "Games have a minimum turn duration between draws`turnDuration` sets to 180 seconds as default to save gas"
      }
    },
    "version": 1
  },
  "storageLayout": {
    "storage": [
      {
        "astId": 1578,
        "contract": "contracts/BingoGame.sol:Bingo",
        "label": "gameRoundNow",
        "offset": 0,
        "slot": "0",
        "type": "t_uint256"
      },
      {
        "astId": 1581,
        "contract": "contracts/BingoGame.sol:Bingo",
        "label": "admin",
        "offset": 0,
        "slot": "1",
        "type": "t_address"
      },
      {
        "astId": 1585,
        "contract": "contracts/BingoGame.sol:Bingo",
        "label": "joinDuration",
        "offset": 0,
        "slot": "2",
        "type": "t_uint256"
      },
      {
        "astId": 1589,
        "contract": "contracts/BingoGame.sol:Bingo",
        "label": "turnDuration",
        "offset": 0,
        "slot": "3",
        "type": "t_uint256"
      },
      {
        "astId": 1592,
        "contract": "contracts/BingoGame.sol:Bingo",
        "label": "BingoToken",
        "offset": 0,
        "slot": "4",
        "type": "t_address"
      },
      {
        "astId": 1596,
        "contract": "contracts/BingoGame.sol:Bingo",
        "label": "betAmountForBINGO",
        "offset": 0,
        "slot": "5",
        "type": "t_uint256"
      },
      {
        "astId": 1599,
        "contract": "contracts/BingoGame.sol:Bingo",
        "label": "returnBet",
        "offset": 0,
        "slot": "6",
        "type": "t_bool"
      },
      {
        "astId": 1603,
        "contract": "contracts/BingoGame.sol:Bingo",
        "label": "maxPlayerNum",
        "offset": 0,
        "slot": "7",
        "type": "t_uint256"
      },
      {
        "astId": 1609,
        "contract": "contracts/BingoGame.sol:Bingo",
        "label": "gameRounds",
        "offset": 0,
        "slot": "8",
        "type": "t_mapping(t_uint256,t_struct(gameRound)1576_storage)"
      }
    ],
    "types": {
      "t_address": {
        "encoding": "inplace",
        "label": "address",
        "numberOfBytes": "20"
      },
      "t_array(t_address)dyn_storage": {
        "base": "t_address",
        "encoding": "dynamic_array",
        "label": "address[]",
        "numberOfBytes": "32"
      },
      "t_array(t_uint256)24_storage": {
        "base": "t_uint256",
        "encoding": "inplace",
        "label": "uint256[24]",
        "numberOfBytes": "768"
      },
      "t_array(t_uint256)25_storage": {
        "base": "t_uint256",
        "encoding": "inplace",
        "label": "uint256[25]",
        "numberOfBytes": "800"
      },
      "t_bool": {
        "encoding": "inplace",
        "label": "bool",
        "numberOfBytes": "1"
      },
      "t_enum(gameStage)1536": {
        "encoding": "inplace",
        "label": "enum Bingo.gameStage",
        "numberOfBytes": "1"
      },
      "t_mapping(t_address,t_struct(player)1549_storage)": {
        "encoding": "mapping",
        "key": "t_address",
        "label": "mapping(address => struct Bingo.player)",
        "numberOfBytes": "32",
        "value": "t_struct(player)1549_storage"
      },
      "t_mapping(t_uint256,t_struct(gameRound)1576_storage)": {
        "encoding": "mapping",
        "key": "t_uint256",
        "label": "mapping(uint256 => struct Bingo.gameRound)",
        "numberOfBytes": "32",
        "value": "t_struct(gameRound)1576_storage"
      },
      "t_mapping(t_uint256,t_uint256)": {
        "encoding": "mapping",
        "key": "t_uint256",
        "label": "mapping(uint256 => uint256)",
        "numberOfBytes": "32",
        "value": "t_uint256"
      },
      "t_struct(gameRound)1576_storage": {
        "encoding": "inplace",
        "label": "struct Bingo.gameRound",
        "members": [
          {
            "astId": 1552,
            "contract": "contracts/BingoGame.sol:Bingo",
            "label": "drawing",
            "offset": 0,
            "slot": "0",
            "type": "t_bool"
          },
          {
            "astId": 1555,
            "contract": "contracts/BingoGame.sol:Bingo",
            "label": "winnerAnnounced",
            "offset": 1,
            "slot": "0",
            "type": "t_bool"
          },
          {
            "astId": 1557,
            "contract": "contracts/BingoGame.sol:Bingo",
            "label": "startTime",
            "offset": 0,
            "slot": "1",
            "type": "t_uint256"
          },
          {
            "astId": 1559,
            "contract": "contracts/BingoGame.sol:Bingo",
            "label": "bingo",
            "offset": 0,
            "slot": "2",
            "type": "t_uint256"
          },
          {
            "astId": 1563,
            "contract": "contracts/BingoGame.sol:Bingo",
            "label": "winner",
            "offset": 0,
            "slot": "3",
            "type": "t_array(t_address)dyn_storage"
          },
          {
            "astId": 1566,
            "contract": "contracts/BingoGame.sol:Bingo",
            "label": "playersArray",
            "offset": 0,
            "slot": "4",
            "type": "t_array(t_address)dyn_storage"
          },
          {
            "astId": 1570,
            "contract": "contracts/BingoGame.sol:Bingo",
            "label": "winningNumders",
            "offset": 0,
            "slot": "5",
            "type": "t_array(t_uint256)24_storage"
          },
          {
            "astId": 1575,
            "contract": "contracts/BingoGame.sol:Bingo",
            "label": "players",
            "offset": 0,
            "slot": "29",
            "type": "t_mapping(t_address,t_struct(player)1549_storage)"
          }
        ],
        "numberOfBytes": "960"
      },
      "t_struct(player)1549_storage": {
        "encoding": "inplace",
        "label": "struct Bingo.player",
        "members": [
          {
            "astId": 1539,
            "contract": "contracts/BingoGame.sol:Bingo",
            "label": "stage",
            "offset": 0,
            "slot": "0",
            "type": "t_enum(gameStage)1536"
          },
          {
            "astId": 1543,
            "contract": "contracts/BingoGame.sol:Bingo",
            "label": "gameBoard",
            "offset": 0,
            "slot": "1",
            "type": "t_array(t_uint256)25_storage"
          },
          {
            "astId": 1548,
            "contract": "contracts/BingoGame.sol:Bingo",
            "label": "gameBoardMatchs",
            "offset": 0,
            "slot": "26",
            "type": "t_mapping(t_uint256,t_uint256)"
          }
        ],
        "numberOfBytes": "864"
      },
      "t_uint256": {
        "encoding": "inplace",
        "label": "uint256",
        "numberOfBytes": "32"
      }
    }
  }
}