{
  "address": "0x27523ded480a58a7fbd8a54a6b96a3d0fcf53410",
  "abi": [
    {
      "inputs": [],
      "name": "erorr__EntryFee",
      "type": "error"
    },
    {
      "inputs": [],
      "name": "error__DrawsNotStared",
      "type": "error"
    },
    {
      "inputs": [],
      "name": "error__InGameAlready",
      "type": "error"
    },
    {
      "anonymous": false,
      "inputs": [
        {
          "indexed": false,
          "internalType": "address",
          "name": "player",
          "type": "address"
        },
        {
          "indexed": false,
          "internalType": "uint256",
          "name": "block",
          "type": "uint256"
        },
        {
          "indexed": false,
          "internalType": "uint256",
          "name": "bet",
          "type": "uint256"
        }
      ],
      "name": "Bet",
      "type": "event"
    },
    {
      "anonymous": false,
      "inputs": [
        {
          "indexed": false,
          "internalType": "address",
          "name": "player",
          "type": "address"
        },
        {
          "indexed": false,
          "internalType": "uint256[]",
          "name": "numbers",
          "type": "uint256[]"
        },
        {
          "indexed": false,
          "internalType": "uint256",
          "name": "result",
          "type": "uint256"
        }
      ],
      "name": "Reveal",
      "type": "event"
    },
    {
      "inputs": [],
      "name": "betValue",
      "outputs": [
        {
          "internalType": "uint256",
          "name": "",
          "type": "uint256"
        }
      ],
      "stateMutability": "view",
      "type": "function"
    },
    {
      "inputs": [],
      "name": "drawing",
      "outputs": [
        {
          "internalType": "bool",
          "name": "",
          "type": "bool"
        }
      ],
      "stateMutability": "view",
      "type": "function"
    },
    {
      "inputs": [],
      "name": "gameRoundNow",
      "outputs": [
        {
          "internalType": "uint256",
          "name": "",
          "type": "uint256"
        }
      ],
      "stateMutability": "view",
      "type": "function"
    },
    {
      "inputs": [
        {
          "internalType": "uint256",
          "name": "",
          "type": "uint256"
        }
      ],
      "name": "gameRounds",
      "outputs": [
        {
          "internalType": "uint256",
          "name": "startTime",
          "type": "uint256"
        }
      ],
      "stateMutability": "view",
      "type": "function"
    },
    {
      "inputs": [],
      "name": "joinDuration",
      "outputs": [
        {
          "internalType": "uint256",
          "name": "",
          "type": "uint256"
        }
      ],
      "stateMutability": "view",
      "type": "function"
    },
    {
      "inputs": [],
      "name": "joinGameWithBet",
      "outputs": [],
      "stateMutability": "payable",
      "type": "function"
    },
    {
      "inputs": [],
      "name": "payoutPerCombination",
      "outputs": [
        {
          "internalType": "uint256",
          "name": "",
          "type": "uint256"
        }
      ],
      "stateMutability": "view",
      "type": "function"
    },
    {
      "inputs": [
        {
          "internalType": "address",
          "name": "",
          "type": "address"
        }
      ],
      "name": "players",
      "outputs": [
        {
          "internalType": "enum Bingo.Stage",
          "name": "stage",
          "type": "uint8"
        },
        {
          "internalType": "uint256",
          "name": "block",
          "type": "uint256"
        },
        {
          "internalType": "uint256",
          "name": "bet",
          "type": "uint256"
        }
      ],
      "stateMutability": "view",
      "type": "function"
    },
    {
      "inputs": [
        {
          "internalType": "address",
          "name": "_player",
          "type": "address"
        }
      ],
      "name": "read",
      "outputs": [
        {
          "internalType": "enum Bingo.Stage",
          "name": "",
          "type": "uint8"
        },
        {
          "internalType": "uint256",
          "name": "",
          "type": "uint256"
        },
        {
          "internalType": "uint256",
          "name": "",
          "type": "uint256"
        },
        {
          "internalType": "uint256[]",
          "name": "",
          "type": "uint256[]"
        },
        {
          "internalType": "uint256[]",
          "name": "",
          "type": "uint256[]"
        }
      ],
      "stateMutability": "view",
      "type": "function"
    },
    {
      "inputs": [],
      "name": "reveal",
      "outputs": [],
      "stateMutability": "payable",
      "type": "function"
    },
    {
      "inputs": [],
      "name": "startGameWithBet",
      "outputs": [],
      "stateMutability": "payable",
      "type": "function"
    },
    {
      "inputs": [],
      "name": "turnDuration",
      "outputs": [
        {
          "internalType": "uint256",
          "name": "",
          "type": "uint256"
        }
      ],
      "stateMutability": "view",
      "type": "function"
    }
  ],
  "transactionHash": "0x79cfc874d6a45a6b1de4658aa69e274eba64d7b64add2ca42c4da41fe4439bf8",
  "args": [],
  "numDeployments": 2,
  "solcInputHash": "e0c92a54131b7bd39fd399b6339d9705",
  "bytecode": "0x608060405260b460025560b4600355670de0b6b3a7640000600455600260055534801561002b57600080fd5b506127f98061003b6000396000f3fe6080604052600436106100a75760003560e01c8063a475b5dd11610064578063a475b5dd146101b5578063af3fac40146101bf578063b77200b1146101ea578063e2eb41ff14610215578063e48e7e4014610254578063ea30f85b1461027f576100a7565b806305066917146100ac578063172bf854146100d757806325f3c1bd1461010257806327249ee81461013f5780639c24da351461016a578063a087a87e14610174575b600080fd5b3480156100b857600080fd5b506100c1610289565b6040516100ce9190611fdf565b60405180910390f35b3480156100e357600080fd5b506100ec61028f565b6040516100f99190611fdf565b60405180910390f35b34801561010e57600080fd5b506101296004803603810190610124919061202b565b610295565b6040516101369190611fdf565b60405180910390f35b34801561014b57600080fd5b506101546102b3565b6040516101619190611fdf565b60405180910390f35b6101726102b9565b005b34801561018057600080fd5b5061019b600480360381019061019691906120b6565b6104e7565b6040516101ac959493929190612218565b60405180910390f35b6101bd610700565b005b3480156101cb57600080fd5b506101d46119af565b6040516101e19190611fdf565b60405180910390f35b3480156101f657600080fd5b506101ff6119b5565b60405161020c9190612294565b60405180910390f35b34801561022157600080fd5b5061023c600480360381019061023791906120b6565b6119c6565b60405161024b939291906122af565b60405180910390f35b34801561026057600080fd5b506102696119fd565b6040516102769190611fdf565b60405180910390f35b610287611a03565b005b60035481565b60025481565b60076020528060005260406000206000915090508060000154905081565b60015481565b6004543410156102f5576040517ff2d99d4000000000000000000000000000000000000000000000000000000000815260040160405180910390fd5b60006001811115610309576103086120e3565b5b600660003373ffffffffffffffffffffffffffffffffffffffff1673ffffffffffffffffffffffffffffffffffffffff16815260200190815260200160002060000160009054906101000a900460ff16600181111561036b5761036a6120e3565b5b146103a2576040517fd5f5313700000000000000000000000000000000000000000000000000000000815260040160405180910390fd5b600254600760006001548152602001908152602001600020600001546103c89190612315565b4210156103dd576103d833611bb9565b610495565b600160008154809291906103f09061236b565b91905055504260076000600154815260200190815260200160002060000181905550600760006001548152602001908152602001600020600101339080600181540180825580915050600190039060005260206000200160009091909190916101000a81548173ffffffffffffffffffffffffffffffffffffffff021916908373ffffffffffffffffffffffffffffffffffffffff16021790555061049433611bb9565b5b6104aa6001436104a591906123b4565b611e01565b7ff41b7910e085d0992d604fd470931728fd77cc8eb504d99e50e51a0a30fcfd1a3343346040516104dd939291906123f7565b60405180910390a1565b6000806000606080600660008773ffffffffffffffffffffffffffffffffffffffff1673ffffffffffffffffffffffffffffffffffffffff16815260200190815260200160002060000160009054906101000a900460ff16600660008873ffffffffffffffffffffffffffffffffffffffff1673ffffffffffffffffffffffffffffffffffffffff16815260200190815260200160002060010154600660008973ffffffffffffffffffffffffffffffffffffffff1673ffffffffffffffffffffffffffffffffffffffff16815260200190815260200160002060020154600660008a73ffffffffffffffffffffffffffffffffffffffff1673ffffffffffffffffffffffffffffffffffffffff168152602001908152602001600020600301600660008b73ffffffffffffffffffffffffffffffffffffffff1673ffffffffffffffffffffffffffffffffffffffff1681526020019081526020016000206004018180548060200260200160405190810160405280929190818152602001828054801561069457602002820191906000526020600020905b815481526020019060010190808311610680575b50505050509150808054806020026020016040519081016040528092919081815260200182805480156106e657602002820191906000526020600020905b8154815260200190600101908083116106d2575b505050505090509450945094509450945091939590929450565b600354600254600760006001548152602001908152602001600020600001546107299190612315565b6107339190612315565b42101561076c576040517fd806432300000000000000000000000000000000000000000000000000000000815260040160405180910390fd5b60018081111561077f5761077e6120e3565b5b600660003373ffffffffffffffffffffffffffffffffffffffff1673ffffffffffffffffffffffffffffffffffffffff16815260200190815260200160002060000160009054906101000a900460ff1660018111156107e1576107e06120e3565b5b146107eb57600080fd5b6000806000806000600660003373ffffffffffffffffffffffffffffffffffffffff1673ffffffffffffffffffffffffffffffffffffffff16815260200190815260200160002090506000600660003373ffffffffffffffffffffffffffffffffffffffff1673ffffffffffffffffffffffffffffffffffffffff168152602001908152602001600020600101544090506108ba6040518060400160405280600181526020017f3100000000000000000000000000000000000000000000000000000000000000815250611e9a565b60008160001c9050600081336040516020016108d7929190612497565b6040516020818303038152906040528051906020012060001c90506109306040518060400160405280600181526020017f3200000000000000000000000000000000000000000000000000000000000000815250611e9a565b5b6019871015610a6557604b60ff821661094a91906124f2565b60016109569190612315565b95506000600882901c116109975781338860405160200161097993929190612523565b6040516020818303038152906040528051906020012060001c61099d565b600881901c5b90508360050160008781526020019081526020016000205494506000851415610a605785600660003373ffffffffffffffffffffffffffffffffffffffff1673ffffffffffffffffffffffffffffffffffffffff1681526020019081526020016000206003018881548110610a1557610a14612560565b5b90600052602060002001819055508684600501600088815260200190815260200160002081905550600b8714610a4c576001610a4f565b60025b60ff1687610a5d9190612315565b96505b610931565b610aa36040518060400160405280600181526020017f3300000000000000000000000000000000000000000000000000000000000000815250611e9a565b6000600660003373ffffffffffffffffffffffffffffffffffffffff1673ffffffffffffffffffffffffffffffffffffffff168152602001908152602001600020600301805480602002602001604051908101604052809291908181526020018280548015610b3157602002820191906000526020600020905b815481526020019060010190808311610b1d575b505050505090508230604051602001610b4b929190612497565b6040516020818303038152906040528051906020012060001c9150600097506000965060009550600097505b601e881015610cdd57604b60ff8316610b9091906124f2565b6001610b9c9190612315565b96506000600883901c11610bdd57823089604051602001610bbf93929190612523565b6040516020818303038152906040528051906020012060001c610be3565b600882901c5b915086856004018981548110610bfc57610bfb612560565b5b906000526020600020018190555084600501600088815260200190815260200160002054955086856003018781548110610c3957610c38612560565b5b90600052602060002001541415610cca576000600660003373ffffffffffffffffffffffffffffffffffffffff1673ffffffffffffffffffffffffffffffffffffffff1681526020019081526020016000206003018981548110610ca057610c9f612560565b5b90600052602060002001819055506000856005016000898152602001908152602001600020819055505b8780610cd59061236b565b985050610b77565b600097505b60058810156111ee576000600660003373ffffffffffffffffffffffffffffffffffffffff1673ffffffffffffffffffffffffffffffffffffffff168152602001908152602001600020600301600060058b610d3e919061258f565b610d489190612315565b81548110610d5957610d58612560565b5b9060005260206000200154148015610de757506000600660003373ffffffffffffffffffffffffffffffffffffffff1673ffffffffffffffffffffffffffffffffffffffff168152602001908152602001600020600301600160058b610dbf919061258f565b610dc99190612315565b81548110610dda57610dd9612560565b5b9060005260206000200154145b8015610e6957506000600660003373ffffffffffffffffffffffffffffffffffffffff1673ffffffffffffffffffffffffffffffffffffffff168152602001908152602001600020600301600260058b610e41919061258f565b610e4b9190612315565b81548110610e5c57610e5b612560565b5b9060005260206000200154145b8015610eeb57506000600660003373ffffffffffffffffffffffffffffffffffffffff1673ffffffffffffffffffffffffffffffffffffffff168152602001908152602001600020600301600360058b610ec3919061258f565b610ecd9190612315565b81548110610ede57610edd612560565b5b9060005260206000200154145b8015610f6d57506000600660003373ffffffffffffffffffffffffffffffffffffffff1673ffffffffffffffffffffffffffffffffffffffff168152602001908152602001600020600301600460058b610f45919061258f565b610f4f9190612315565b81548110610f6057610f5f612560565b5b9060005260206000200154145b15610f81578880610f7d9061236b565b9950505b6000600660003373ffffffffffffffffffffffffffffffffffffffff1673ffffffffffffffffffffffffffffffffffffffff168152602001908152602001600020600301896000610fd29190612315565b81548110610fe357610fe2612560565b5b906000526020600020015414801561106557506000600660003373ffffffffffffffffffffffffffffffffffffffff1673ffffffffffffffffffffffffffffffffffffffff1681526020019081526020016000206003018960056110479190612315565b8154811061105857611057612560565b5b9060005260206000200154145b80156110db57506000600660003373ffffffffffffffffffffffffffffffffffffffff1673ffffffffffffffffffffffffffffffffffffffff16815260200190815260200160002060030189600a6110bd9190612315565b815481106110ce576110cd612560565b5b9060005260206000200154145b801561115157506000600660003373ffffffffffffffffffffffffffffffffffffffff1673ffffffffffffffffffffffffffffffffffffffff16815260200190815260200160002060030189600f6111339190612315565b8154811061114457611143612560565b5b9060005260206000200154145b80156111c757506000600660003373ffffffffffffffffffffffffffffffffffffffff1673ffffffffffffffffffffffffffffffffffffffff1681526020019081526020016000206003018960146111a99190612315565b815481106111ba576111b9612560565b5b9060005260206000200154145b156111db5788806111d79061236b565b9950505b87806111e69061236b565b985050610ce2565b6000600660003373ffffffffffffffffffffffffffffffffffffffff1673ffffffffffffffffffffffffffffffffffffffff16815260200190815260200160002060030189600061123f9190612315565b815481106112505761124f612560565b5b90600052602060002001541480156112c757506000600660003373ffffffffffffffffffffffffffffffffffffffff1673ffffffffffffffffffffffffffffffffffffffff1681526020019081526020016000206003016006815481106112ba576112b9612560565b5b9060005260206000200154145b801561133257506000600660003373ffffffffffffffffffffffffffffffffffffffff1673ffffffffffffffffffffffffffffffffffffffff168152602001908152602001600020600301600c8154811061132557611324612560565b5b9060005260206000200154145b801561139d57506000600660003373ffffffffffffffffffffffffffffffffffffffff1673ffffffffffffffffffffffffffffffffffffffff1681526020019081526020016000206003016012815481106113905761138f612560565b5b9060005260206000200154145b801561140857506000600660003373ffffffffffffffffffffffffffffffffffffffff1673ffffffffffffffffffffffffffffffffffffffff1681526020019081526020016000206003016018815481106113fb576113fa612560565b5b9060005260206000200154145b1561141c5788806114189061236b565b9950505b6000600660003373ffffffffffffffffffffffffffffffffffffffff1673ffffffffffffffffffffffffffffffffffffffff16815260200190815260200160002060030160048154811061147357611472612560565b5b90600052602060002001541480156114ea57506000600660003373ffffffffffffffffffffffffffffffffffffffff1673ffffffffffffffffffffffffffffffffffffffff1681526020019081526020016000206003016008815481106114dd576114dc612560565b5b9060005260206000200154145b801561155557506000600660003373ffffffffffffffffffffffffffffffffffffffff1673ffffffffffffffffffffffffffffffffffffffff168152602001908152602001600020600301600c8154811061154857611547612560565b5b9060005260206000200154145b80156115c057506000600660003373ffffffffffffffffffffffffffffffffffffffff1673ffffffffffffffffffffffffffffffffffffffff1681526020019081526020016000206003016010815481106115b3576115b2612560565b5b9060005260206000200154145b801561162b57506000600660003373ffffffffffffffffffffffffffffffffffffffff1673ffffffffffffffffffffffffffffffffffffffff16815260200190815260200160002060030160148154811061161e5761161d612560565b5b9060005260206000200154145b1561163f57888061163b9061236b565b9950505b61167d6040518060400160405280600181526020017f3500000000000000000000000000000000000000000000000000000000000000815250611e9a565b60003373ffffffffffffffffffffffffffffffffffffffff1686600201546040516116a79061261a565b60006040518083038185875af1925050503d80600081146116e4576040519150601f19603f3d011682016040523d82523d6000602084013e6116e9565b606091505b505090508061172d576040517f08c379a00000000000000000000000000000000000000000000000000000000081526004016117249061268c565b60405180910390fd5b6000600660003373ffffffffffffffffffffffffffffffffffffffff1673ffffffffffffffffffffffffffffffffffffffff16815260200190815260200160002060000160006101000a81548160ff02191690836001811115611793576117926120e3565b5b02179055506000600660003373ffffffffffffffffffffffffffffffffffffffff1673ffffffffffffffffffffffffffffffffffffffff168152602001908152602001600020600101819055506000600660003373ffffffffffffffffffffffffffffffffffffffff1673ffffffffffffffffffffffffffffffffffffffff16815260200190815260200160002060020181905550601967ffffffffffffffff811115611843576118426126ac565b5b6040519080825280602002602001820160405280156118715781602001602082028036833780820191505090505b50600660003373ffffffffffffffffffffffffffffffffffffffff1673ffffffffffffffffffffffffffffffffffffffff16815260200190815260200160002060030190805190602001906118c7929190611f5c565b50601e67ffffffffffffffff8111156118e3576118e26126ac565b5b6040519080825280602002602001820160405280156119115781602001602082028036833780820191505090505b50600660003373ffffffffffffffffffffffffffffffffffffffff1673ffffffffffffffffffffffffffffffffffffffff1681526020019081526020016000206004019080519060200190611967929190611f5c565b507f2510b5fa56ee27c8026eb08dfd4c4f091a07df77c149b45a820ffa4954af9f3633838c60405161199b939291906126db565b60405180910390a150505050505050505050565b60045481565b60008054906101000a900460ff1681565b60066020528060005260406000206000915090508060000160009054906101000a900460ff16908060010154908060020154905083565b60055481565b60006001811115611a1757611a166120e3565b5b600660003373ffffffffffffffffffffffffffffffffffffffff1673ffffffffffffffffffffffffffffffffffffffff16815260200190815260200160002060000160009054906101000a900460ff166001811115611a7957611a786120e3565b5b14611ab0576040517fd5f5313700000000000000000000000000000000000000000000000000000000815260040160405180910390fd5b60016000815480929190611ac39061236b565b91905055504260076000600154815260200190815260200160002060000181905550600760006001548152602001908152602001600020600101339080600181540180825580915050600190039060005260206000200160009091909190916101000a81548173ffffffffffffffffffffffffffffffffffffffff021916908373ffffffffffffffffffffffffffffffffffffffff160217905550611b6733611bb9565b611b7c600143611b7791906123b4565b611e01565b7ff41b7910e085d0992d604fd470931728fd77cc8eb504d99e50e51a0a30fcfd1a334334604051611baf939291906123f7565b60405180910390a1565b6001600660008373ffffffffffffffffffffffffffffffffffffffff1673ffffffffffffffffffffffffffffffffffffffff16815260200190815260200160002060000160006101000a81548160ff02191690836001811115611c1f57611c1e6120e3565b5b0217905550600143611c3191906123b4565b600660008373ffffffffffffffffffffffffffffffffffffffff1673ffffffffffffffffffffffffffffffffffffffff1681526020019081526020016000206001018190555034600660008373ffffffffffffffffffffffffffffffffffffffff1673ffffffffffffffffffffffffffffffffffffffff16815260200190815260200160002060020181905550601967ffffffffffffffff811115611cd957611cd86126ac565b5b604051908082528060200260200182016040528015611d075781602001602082028036833780820191505090505b50600660008373ffffffffffffffffffffffffffffffffffffffff1673ffffffffffffffffffffffffffffffffffffffff1681526020019081526020016000206003019080519060200190611d5d929190611f5c565b50601e67ffffffffffffffff811115611d7957611d786126ac565b5b604051908082528060200260200182016040528015611da75781602001602082028036833780820191505090505b50600660008373ffffffffffffffffffffffffffffffffffffffff1673ffffffffffffffffffffffffffffffffffffffff1681526020019081526020016000206004019080519060200190611dfd929190611f5c565b5050565b611e9781604051602401611e159190611fdf565b6040516020818303038152906040527ff82c50f1000000000000000000000000000000000000000000000000000000007bffffffffffffffffffffffffffffffffffffffffffffffffffffffff19166020820180517bffffffffffffffffffffffffffffffffffffffffffffffffffffffff8381831617835250505050611f33565b50565b611f3081604051602401611eae91906127a1565b6040516020818303038152906040527f41304fac000000000000000000000000000000000000000000000000000000007bffffffffffffffffffffffffffffffffffffffffffffffffffffffff19166020820180517bffffffffffffffffffffffffffffffffffffffffffffffffffffffff8381831617835250505050611f33565b50565b60008151905060006a636f6e736f6c652e6c6f679050602083016000808483855afa5050505050565b828054828255906000526020600020908101928215611f98579160200282015b82811115611f97578251825591602001919060010190611f7c565b5b509050611fa59190611fa9565b5090565b5b80821115611fc2576000816000905550600101611faa565b5090565b6000819050919050565b611fd981611fc6565b82525050565b6000602082019050611ff46000830184611fd0565b92915050565b600080fd5b61200881611fc6565b811461201357600080fd5b50565b60008135905061202581611fff565b92915050565b60006020828403121561204157612040611ffa565b5b600061204f84828501612016565b91505092915050565b600073ffffffffffffffffffffffffffffffffffffffff82169050919050565b600061208382612058565b9050919050565b61209381612078565b811461209e57600080fd5b50565b6000813590506120b08161208a565b92915050565b6000602082840312156120cc576120cb611ffa565b5b60006120da848285016120a1565b91505092915050565b7f4e487b7100000000000000000000000000000000000000000000000000000000600052602160045260246000fd5b60028110612123576121226120e3565b5b50565b600081905061213482612112565b919050565b600061214482612126565b9050919050565b61215481612139565b82525050565b600081519050919050565b600082825260208201905092915050565b6000819050602082019050919050565b61218f81611fc6565b82525050565b60006121a18383612186565b60208301905092915050565b6000602082019050919050565b60006121c58261215a565b6121cf8185612165565b93506121da83612176565b8060005b8381101561220b5781516121f28882612195565b97506121fd836121ad565b9250506001810190506121de565b5085935050505092915050565b600060a08201905061222d600083018861214b565b61223a6020830187611fd0565b6122476040830186611fd0565b818103606083015261225981856121ba565b9050818103608083015261226d81846121ba565b90509695505050505050565b60008115159050919050565b61228e81612279565b82525050565b60006020820190506122a96000830184612285565b92915050565b60006060820190506122c4600083018661214b565b6122d16020830185611fd0565b6122de6040830184611fd0565b949350505050565b7f4e487b7100000000000000000000000000000000000000000000000000000000600052601160045260246000fd5b600061232082611fc6565b915061232b83611fc6565b9250827fffffffffffffffffffffffffffffffffffffffffffffffffffffffffffffffff038211156123605761235f6122e6565b5b828201905092915050565b600061237682611fc6565b91507fffffffffffffffffffffffffffffffffffffffffffffffffffffffffffffffff8214156123a9576123a86122e6565b5b600182019050919050565b60006123bf82611fc6565b91506123ca83611fc6565b9250828210156123dd576123dc6122e6565b5b828203905092915050565b6123f181612078565b82525050565b600060608201905061240c60008301866123e8565b6124196020830185611fd0565b6124266040830184611fd0565b949350505050565b6000819050919050565b61244961244482611fc6565b61242e565b82525050565b60008160601b9050919050565b60006124678261244f565b9050919050565b60006124798261245c565b9050919050565b61249161248c82612078565b61246e565b82525050565b60006124a38285612438565b6020820191506124b38284612480565b6014820191508190509392505050565b7f4e487b7100000000000000000000000000000000000000000000000000000000600052601260045260246000fd5b60006124fd82611fc6565b915061250883611fc6565b925082612518576125176124c3565b5b828206905092915050565b600061252f8286612438565b60208201915061253f8285612480565b60148201915061254f8284612438565b602082019150819050949350505050565b7f4e487b7100000000000000000000000000000000000000000000000000000000600052603260045260246000fd5b600061259a82611fc6565b91506125a583611fc6565b9250817fffffffffffffffffffffffffffffffffffffffffffffffffffffffffffffffff04831182151516156125de576125dd6122e6565b5b828202905092915050565b600081905092915050565b50565b60006126046000836125e9565b915061260f826125f4565b600082019050919050565b6000612625826125f7565b9150819050919050565b600082825260208201905092915050565b7f43616c6c206661696c6564000000000000000000000000000000000000000000600082015250565b6000612676600b8361262f565b915061268182612640565b602082019050919050565b600060208201905081810360008301526126a581612669565b9050919050565b7f4e487b7100000000000000000000000000000000000000000000000000000000600052604160045260246000fd5b60006060820190506126f060008301866123e8565b818103602083015261270281856121ba565b90506127116040830184611fd0565b949350505050565b600081519050919050565b60005b83811015612742578082015181840152602081019050612727565b83811115612751576000848401525b50505050565b6000601f19601f8301169050919050565b600061277382612719565b61277d818561262f565b935061278d818560208601612724565b61279681612757565b840191505092915050565b600060208201905081810360008301526127bb8184612768565b90509291505056fea26469706673582212204a579b86015956c5f83f77a9a3ab9935e9abb26f319963a4cb67388daa132def64736f6c63430008080033",
  "devdoc": {
    "kind": "dev",
    "methods": {},
    "version": 1
  },
  "userdoc": {
    "kind": "user",
    "methods": {},
    "version": 1
  },
  "storageLayout": {
    "storage": [
      {
        "astId": 46,
        "contract": "contracts/Bingo.sol:Bingo",
        "label": "drawing",
        "offset": 0,
        "slot": "0",
        "type": "t_bool"
      },
      {
        "astId": 48,
        "contract": "contracts/Bingo.sol:Bingo",
        "label": "gameRoundNow",
        "offset": 0,
        "slot": "1",
        "type": "t_uint256"
      },
      {
        "astId": 51,
        "contract": "contracts/Bingo.sol:Bingo",
        "label": "joinDuration",
        "offset": 0,
        "slot": "2",
        "type": "t_uint256"
      },
      {
        "astId": 54,
        "contract": "contracts/Bingo.sol:Bingo",
        "label": "turnDuration",
        "offset": 0,
        "slot": "3",
        "type": "t_uint256"
      },
      {
        "astId": 57,
        "contract": "contracts/Bingo.sol:Bingo",
        "label": "betValue",
        "offset": 0,
        "slot": "4",
        "type": "t_uint256"
      },
      {
        "astId": 60,
        "contract": "contracts/Bingo.sol:Bingo",
        "label": "payoutPerCombination",
        "offset": 0,
        "slot": "5",
        "type": "t_uint256"
      },
      {
        "astId": 65,
        "contract": "contracts/Bingo.sol:Bingo",
        "label": "players",
        "offset": 0,
        "slot": "6",
        "type": "t_mapping(t_address,t_struct(Player)35_storage)"
      },
      {
        "astId": 70,
        "contract": "contracts/Bingo.sol:Bingo",
        "label": "gameRounds",
        "offset": 0,
        "slot": "7",
        "type": "t_mapping(t_uint256,t_struct(gameRound)44_storage)"
      }
    ],
    "types": {
      "t_address": {
        "encoding": "inplace",
        "label": "address",
        "numberOfBytes": "20"
      },
      "t_array(t_address)dyn_storage": {
        "base": "t_address",
        "encoding": "dynamic_array",
        "label": "address[]",
        "numberOfBytes": "32"
      },
      "t_array(t_uint256)dyn_storage": {
        "base": "t_uint256",
        "encoding": "dynamic_array",
        "label": "uint256[]",
        "numberOfBytes": "32"
      },
      "t_bool": {
        "encoding": "inplace",
        "label": "bool",
        "numberOfBytes": "1"
      },
      "t_enum(Stage)17": {
        "encoding": "inplace",
        "label": "enum Bingo.Stage",
        "numberOfBytes": "1"
      },
      "t_mapping(t_address,t_struct(Player)35_storage)": {
        "encoding": "mapping",
        "key": "t_address",
        "label": "mapping(address => struct Bingo.Player)",
        "numberOfBytes": "32",
        "value": "t_struct(Player)35_storage"
      },
      "t_mapping(t_uint256,t_struct(gameRound)44_storage)": {
        "encoding": "mapping",
        "key": "t_uint256",
        "label": "mapping(uint256 => struct Bingo.gameRound)",
        "numberOfBytes": "32",
        "value": "t_struct(gameRound)44_storage"
      },
      "t_mapping(t_uint256,t_uint256)": {
        "encoding": "mapping",
        "key": "t_uint256",
        "label": "mapping(uint256 => uint256)",
        "numberOfBytes": "32",
        "value": "t_uint256"
      },
      "t_struct(Player)35_storage": {
        "encoding": "inplace",
        "label": "struct Bingo.Player",
        "members": [
          {
            "astId": 20,
            "contract": "contracts/Bingo.sol:Bingo",
            "label": "stage",
            "offset": 0,
            "slot": "0",
            "type": "t_enum(Stage)17"
          },
          {
            "astId": 22,
            "contract": "contracts/Bingo.sol:Bingo",
            "label": "block",
            "offset": 0,
            "slot": "1",
            "type": "t_uint256"
          },
          {
            "astId": 24,
            "contract": "contracts/Bingo.sol:Bingo",
            "label": "bet",
            "offset": 0,
            "slot": "2",
            "type": "t_uint256"
          },
          {
            "astId": 27,
            "contract": "contracts/Bingo.sol:Bingo",
            "label": "card",
            "offset": 0,
            "slot": "3",
            "type": "t_array(t_uint256)dyn_storage"
          },
          {
            "astId": 30,
            "contract": "contracts/Bingo.sol:Bingo",
            "label": "generatedNumders",
            "offset": 0,
            "slot": "4",
            "type": "t_array(t_uint256)dyn_storage"
          },
          {
            "astId": 34,
            "contract": "contracts/Bingo.sol:Bingo",
            "label": "cardsCheker",
            "offset": 0,
            "slot": "5",
            "type": "t_mapping(t_uint256,t_uint256)"
          }
        ],
        "numberOfBytes": "192"
      },
      "t_struct(gameRound)44_storage": {
        "encoding": "inplace",
        "label": "struct Bingo.gameRound",
        "members": [
          {
            "astId": 37,
            "contract": "contracts/Bingo.sol:Bingo",
            "label": "startTime",
            "offset": 0,
            "slot": "0",
            "type": "t_uint256"
          },
          {
            "astId": 40,
            "contract": "contracts/Bingo.sol:Bingo",
            "label": "players",
            "offset": 0,
            "slot": "1",
            "type": "t_array(t_address)dyn_storage"
          },
          {
            "astId": 43,
            "contract": "contracts/Bingo.sol:Bingo",
            "label": "winner",
            "offset": 0,
            "slot": "2",
            "type": "t_array(t_address)dyn_storage"
          }
        ],
        "numberOfBytes": "96"
      },
      "t_uint256": {
        "encoding": "inplace",
        "label": "uint256",
        "numberOfBytes": "32"
      }
    }
  }
}